:100000000C9482030C9462150C943B150C94EB0633
:100010000C94AA030C94AA030C94AA030C94AA03AC
:100020000C94AA030C94AA030C94AA030C94AA039C
:100030000C94AA030C94AA030C94AA030C94AA038C
:100040000C94BC180C94AA030C94AF150C9489154D
:100050000C94AA030C94AA030C94AA030C94AA036C
:100060000C94AA030C94AA035365656E206964730B
:1000700020636F756E743A2000466F726D61747400
:10008000696E672073746F7261676500446973619C
:10009000626C696E6720666F726365206177616B61
:1000A000650053686F77204944207461736B3A2070
:1000B000004944206F766572666C6F7720776865BB
:1000C0006E20697465726174696E67210053686F90
:1000D00077207461736B3A200019FF401940FFFECE
:1000E00053656E642070726573656E63652074611C
:1000F000736B3A20005061697220736C65657020E3
:100100007461736B20747269676765726564004D12
:1001100061726B696E67206964207365656E3A2051
:1001200000436F6E6669726D6564206E657720624C
:10013000616467652000322064326420FE436F6E84
:100140006669726D65642070726576207365656E90
:10015000206261646765200019FFFF194040FE437B
:100160006F6E6669726D6564206E65772074656177
:100170006D2000556E6578706563746564206261FA
:100180006467652049443A2000496E76616C696471
:100190002062616467652069640054686973206344
:1001A0006F6E6669726D206973206E6F74206F7553
:1001B00072730054696D656F757420776169746935
:1001C0006E6720666F7220636F6E6669726D617410
:1001D000696F6E004E6F7468696E6720746F20647B
:1001E000756D7000198040198080194080198080D9
:1001F000FE546869732064756D70206973206E6F9A
:1002000074206F75727300476F742064756D702071
:10021000776974686F75742070726573656E636555
:1002200000496E76616C6964207465616D20696453
:10023000200049276D20616C7265616479206F6EC2
:100240002061207465616D00476F742073657420B0
:10025000776974686F75742070726573656E636515
:10026000005468697320736574206973206E6F741D
:10027000206F75727300476F742061636B2077691C
:1002800074686F75742070726573656E636500497C
:100290006E76616C696420626164676520696400E0
:1002A000546869732061636B206973206E6F7420DA
:1002B0006F75727300476F74206F776E20696420CA
:1002C0006F6E2070726573656E63652C2069676E52
:1002D0006F72696E6700496E76616C696420707236
:1002E0006573656E6365204944004E6F206D6F72C3
:1002F0006520706167657300466F756E64206E6F70
:100300006E656D7074792070616765200044756D4D
:1003100070696E672066696E69736865640044750C
:100320006D702061636B20666F7220696E76616C00
:100330006964207061676500546869732064756D35
:10034000702061636B206973206E6F74206F75720B
:10035000730044756D70696E672070616765200079
:1003600054696D656F75742077616974696E672073
:10037000666F722064756D7020636F6E6669726D52
:100380006174696F6E002B4D46426164676532305F
:1003900031392F312E30002B436F6D6D616E6473D8
:1003A0003A004E6577206964207365743A20002B0B
:1003B00053002B57002B46002D4572726F72004E72
:1003C0006577207465616D206964207365743A20D7
:1003D000002B706978656C73506F77657220000030
:1003E0000000000023000F00001E320F0000140068
:1003F0001E0F0F00231E3253686F77696E67204906
:100400004420000000000000000000000000000088
:1004100000000000000000000000000000000001DB
:1004200001010101010101010101010102020202B8
:10043000020202020303030303030304040404048B
:100440000505050506060606070707070808080943
:1004500009090A0A0A0B0B0B0C0C0D0D0D0E0E0FE1
:100460000F1010111112121313141415151616175C
:10047000181819191A1B1B1C1D1D1E1F20202122B4
:100480002323242526272728292A2B2C2D2E2F30DD
:100490003132323334363738393A3B3C3D3E3F40D7
:1004A000424344454648494A4B4D4E4F515253559D
:1004B0005657595A5C5D5F606263656668696B6D2B
:1004C0006E7072737577787A7C7E7F818385878979
:1004D0008A8C8E90929496989A9C9EA0A2A4A7A98A
:1004E000ABADAFB1B4B6B8BABDBFC1C4C6C8CBCD51
:1004F000D0D2D5D7DADCDFE1E4E7E9ECEFF1F4F7CD
:10050000F9FCFF2B6C656473506F77657220002BCC
:10051000697252656376506F7765722000005EBC29
:10052000E2613FDD83C29C7E20A3FD1F41009D232D
:10053000BE46DB65F88C11AF32CA57E97453656E5D
:10054000742049522064756D70200052656365699E
:100550007665642049522064756D70200053656E85
:100560007420495220636F6D6D616E642030780095
:10057000526563656976656420495220636F6D6DCD
:10058000616E642030780052656365697665642029
:100590006F6C6420636F6D6D616E64200053656ED7
:1005A00074206F6C6420636F6D6D616E6420005306
:1005B000746F72616765206C6F61646564004D796A
:1005C000207465616D20004F6E2D6E6F65732C2059
:1005D000696E76616C6964207465616D20494400C0
:1005E0004F682D6E6F65732C20696E76616C69643F
:1005F000206F776E204944004D79204944200052F5
:10060000656164790053657269616C20636F6D6D1B
:10061000616E647320656E61626C65640053746121
:100620007274696E67000000000FFFFF3CFFFF045B
:10063000000004FFFF19FFFF04000004FFFFFF5745
:10064000616B65757020726561736F6E2000476F16
:10065000696E6720746F20736C656570002D556E30
:100660006B6E6F776E20636F6D6D616E64002D4DE4
:10067000697373696E672063616C6C6261636B00A0
:100680002D4D697373696E6720636D6420746162B8
:100690006C65002D436F6D6D616E6420746F6F200B
:1006A0006C6F6E670000000000240027002A000025
:1006B000000000250028002B000000000023002679
:1006C00000290004040404040404040202020202D7
:1006D0000203030303030301020408102040800106
:1006E0000204081020010204081020000000080085
:1006F00002010000030407000000000000000000E9
:10070000CC1C061911241FBECFEFD8E0DEBFCDBF31
:1007100011E0A0E0B1E0E0E7FDE302C005900D923A
:10072000AC35B107D9F725E0ACE5B1E001C01D92C9
:10073000A336B207E1F713E0C1E8D3E004C0219784
:10074000FE010E94A01EC038D107C9F70E941E19E1
:100750000C94AB1E0C9400000E94B0184AE050E0CC
:100760000E94FC160E94F8168CE890E00E94DD16AC
:100770008AE00E94D8161092C30308950E94B01810
:100780004AE050E00E94FC160E94F81685EF90E0C7
:100790000E94DD168AE00E94D81682E694E00E944C
:1007A000E91387E894E00E94E91380E090E00E945A
:1007B000601381E08093C40308950E94B0184AE05A
:1007C00050E00E94FC160E94F8168DEC90E00E940A
:1007D000DD166091E6047091E7048091E804909141
:1007E000E9044AE050E00E94FC168AE00E94D81614
:1007F0008091DE049091DF04A091E004B091E104C7
:10080000892B8A2B8B2B41F480E090E00E946013AF
:1008100081E08093C40308958091C1039091C20345
:100820000196811520E19207C0F09093C203809356
:10083000C1030E94B0184AE050E00E94FC160E94DA
:10084000F81681EB90E00E94DD168AE00E94D8162F
:100850001092C2031092C10318C0FC0123E0F69568
:10086000E7952A95E1F7E254FE4F208130E0AC0194
:100870004770552702C0359527954A95E2F720FF26
:10088000CFCF9093C2038093C1038091C103909115
:10089000C2030C946013CF93DF9300D000D0CDB788
:1008A000DEB70E94B0184AE050E00E94FC160E9499
:1008B000F81682EA90E00E94DD166091E6047091DD
:1008C000E7048091E8049091E9044AE050E00E9436
:1008D000FC168AE00E94D8168091DE049091DF0415
:1008E000A091E004B091E104892B8A2B8B2B09F0B5
:1008F00065C06091BC017091BD016F5F7F4FCB01FE
:10090000A0E0B0E08093DE049093DF04A093E004C5
:10091000B093E1048093E2049093E304A093E40491
:10092000B093E5048DED93E09093EB048093EA049B
:100930006830710540F080E49FE10E948C1EAB019D
:1009400060E070E004C048EE53E060E070E081EDEC
:1009500094E00E94171481ED94E00E942F1484EF1C
:1009600091E0A0E0B0E089839A83AB83BC83898166
:100970009A81AB81BC818093D6049093D704A093D5
:10098000D804B093D9040E94B0186093DA0470932D
:10099000DB048093DC049093DD048091E204909169
:1009A000E304A091E404B091E5048093DE04909305
:1009B000DF04A093E004B093E1041FC08091E6043B
:1009C00080FD04C0E091BE03E1110CC08091BF0323
:1009D0009091C0030F900F900F900F90DF91CF91E7
:1009E0000C946013E150E33040F4F0E0EE0FFF1F91
:1009F000E45CFE4F80819181EDCF80E090E0EACF12
:100A0000FF920F931F93CF93DF930E94B0184AE099
:100A100050E00E94FC160E94F81689E790E00E94C0
:100A2000DD168AE00E94D81680E092E0EEEBF1E05D
:100A3000DF019C011D9221503040E1F78F01C4E09D
:100A4000D0E0D801FD908D01CE010E94131EF81652
:100A500021F06F2DCE010E941B1E2196C430B2E002
:100A6000DB0779F76BE583E090E00E943D0C6AE2DA
:100A700084E092E00E943D0C1092BD011092BC01F6
:100A8000DF91CF911F910F91FF9008950E94B018B0
:100A90004AE050E00E94FC160E94F81688E690E0BA
:100AA0000E94DD168091BC019091BD010E9421172A
:100AB0008AE00C94D816EEEBF1E06EEB73E080E088
:100AC00090E0419120E030E050E0DA01022E02C0D7
:100AD000B595A7950A94E2F7A0FD01962F5F3F4FC9
:100AE0002830310591F76E177F0759F70895CF9396
:100AF000DF93EC01892B11F50E94B0184AE050E019
:100B00000E94FC160E94F8168FE591E00E94DD1607
:100B10006AE070E08091BE030E9415178AE00E948F
:100B2000D81688E591E00E941313E091BE03E150CE
:100B3000E33008F485C080E090E089C0C11580E111
:100B4000D80758F5FE0133E0F695E7953A95E1F7B9
:100B5000E254FE4F808190E09E012770332702C04F
:100B6000959587952A95E2F780FF17C00E94B018E7
:100B70004AE050E00E94FC160E94F8168DE391E0D6
:100B80000E94DD16CE010E9421178AE00E94D8162D
:100B900086E391E00E94131371C00E94B0184AE0EE
:100BA00050E00E94FC160E94F81681E291E00E943B
:100BB000DD16CE010E9421178AE00E94D81688E532
:100BC00091E00E941313CF3F8FE0D80709F456C07D
:100BD0000E94B0184AE050E00E94FC160E94F816ED
:100BE0008FE091E00E94DD16CE010E9421178AE07D
:100BF0000E94D816C11580E1D80708F03FC0CE0189
:100C00008770992761E070E001C0660F8A95EAF766
:100C1000CE0123E0969587952A95E1F7FC01E254F1
:100C2000FE4F2081622B608304960E943D0C0E943F
:100C30005B059093BD018093BC010E9446051EC0D8
:100C4000F0E0EE0FFF1FE45CFE4F808191810E9477
:100C5000601361E08DE00E947E1748EB5BE060E08E
:100C600070E082E694E00E9417148EEB93E090937C
:100C70007C0480937B04DF91CF910895CE01E7CF70
:100C80000F931F93CF93DF9300D000D01F92CDB767
:100C9000DEB78091770490917804A0917904B091A7
:100CA0007A04C397A105B10590F00E94B0184AE0FC
:100CB00050E00E94FC160E94F81683EB91E00E941F
:100CC000DD168AE00E94D8160E94BE037AC0CE01CB
:100CD00001960E94A211882309F473C089818C7F38
:100CE0008C3C19F0803E09F06CC04091BF035091DC
:100CF000C003803E09F451709B81792F72957F70FB
:100D00006C81E62FE295E07F2E2F272B362F329530
:100D10003F704217530759F00E94B0184AE050E064
:100D20000E94FC160E94F8168AE991E028C00A8108
:100D3000192F1F70803EA1F4C80187709927892B55
:100D4000A1F0C80188739927892B79F0C801807CAC
:100D50009170892B51F0011582E0180798F005C0B9
:100D6000C8010E949C0B81110DC00E94B0184AE07E
:100D700050E00E94FC160E94F81689E891E00E945B
:100D8000DD1618C080915D0190915E01081719076A
:100D9000A9F00E94B0184AE050E00E94FC160E94A0
:100DA000F81683E791E00E94DD169B818A819F708F
:100DB0000E9421178AE00E94D81603C0C8010E9431
:100DC00077050F900F900F900F900F90DF91CF91BC
:100DD0001F910F9108951F920F920FB60F92112439
:100DE0008F93EF93FF93E8E6F0E080818E7F80831E
:100DF000FF91EF918F910F900FBE0F901F9018955C
:100E0000CF9389E00E945517C1E0892B09F0C0E01B
:100E100088E00E945517892B09F4C2608C2FCF916E
:100E200008950E94000780FF0AC081ED94E00E94AF
:100E3000E9138CEA94E00E94E9130C94A10D089543
:100E4000CF93DF93EC0164E00E948A118C8360E011
:100E5000CE010E94E41041E065E0CE01DF91CF9128
:100E60000C942D121F93CF93DF93CDB7DEB72A9743
:100E70000FB6F894DEBF0FBECDBFCE0106960E941E
:100E8000A211882309F40AC21E811C7F143C19F1A7
:100E90001C3D09F094C04F812885522F5F70229528
:100EA0002F703985632F6295607F862F822B932F59
:100EB00092959F708095909591704817590759F0B9
:100EC0000E94B0184AE050E00E94FC160E94F816FA
:100ED00086ED92E088C18F812885922F9F702091A6
:100EE000BF033091C0038217930759F40E94B018D2
:100EF0004AE050E00E94FC160E94F81685EB92E052
:100F000072C187E894E00E94E91328858F8190914F
:100F1000BF034091C0031C3D51F5392F3295330F6B
:100F2000330F307C35613983969596953A81307CC4
:100F3000932B40FB96F980FB97F99A8386959B81CA
:100F40009078892B20FB87F98B8363E0CE01019693
:100F50000E948A118C8363E0CE0101960E94E41006
:100F600040E064E0CE0101960E942D1216C030913F
:100F7000BE033370386C39839A83982F9295907F93
:100F80004F70492B4B832295207F82958F70822B47
:100F90008C83CE0101960E9420079F8188858F70E7
:100FA00090935D0180935E0182E694E00E942F148D
:100FB00080E496E090937C0480937B046FC1183C9E
:100FC00009F065C02885422F42954F703985532F0F
:100FD0005295507F852F842B932F92959F7040912F
:100FE000BF035091C0038417950759F00E94B018B1
:100FF0004AE050E00E94FC160E94F81680EA92E057
:10100000F2C08F81922F9F700E949C0B81110BC0A8
:101010000E94B0184AE050E00E94FC160E94F816A8
:101020008FE892E0E0C080915F0181110BC00E94C7
:10103000B0184AE050E00E94FC160E94F81686E7BD
:1010400092E0D1C087E894E00E94E9138F819885EF
:101050003091BF034091C0032091BE0323702C6CDC
:1010600029833A83382F3295307F242F2F70232BFA
:101070002B839295907F82958F70892B8C83CE01E4
:1010800001960E94200798858F819F7082C0143E30
:1010900009F082C02885422F42954F703985532F21
:1010A0005295507F852F842B932F92959F7040915E
:1010B000BF035091C0038417950759F00E94B018E0
:1010C0004AE050E00E94FC160E94F81681E692E089
:1010D0008AC080915F0181110BC00E94B0184AE064
:1010E00050E00E94FC160E94F81688E492E07BC053
:1010F0008091BE03882359F00E94B0184AE050E066
:101100000E94FC160E94F81682E392E06CC08F8168
:10111000922F9F708150904F9F70039790F00E9484
:10112000B0184AE050E00E94FC160E94F81681E2D6
:1011300092E00E94DD1698858F819F700E94211792
:1011400054C087E894E00E94E9138F81843010F442
:101150000E943F0C8F8198853091BF034091C0035E
:101160002091BE032370286E29833A83382F32954D
:10117000307F242F2F70232B2B839295907F829585
:101180008F70892B8C83CE0101960E94200780E00E
:1011900090E00E94770582C0103D09F07FC08091E9
:1011A0005F0181110BC00E94B0184AE050E00E941C
:1011B000FC160E94F81687E092E015C08F81288502
:1011C000922F9F702091BF033091C0038217930725
:1011D00081F00E94B0184AE050E00E94FC160E9484
:1011E000F81681EF91E00E94DD168AE00E94D81681
:1011F00055C0EEEBF1E030E010E020E0419141110C
:1012000031E02F5F233019F4130F20E030E043E08A
:10121000EE3BF40799F72111130F2091BE032370C1
:10122000286D29838A83812F8295807F9F70892BE7
:101230008B83812F82958F708C83CE0101960E94C3
:10124000200780E00E947A0C809360011123A9F0AE
:101250008F3F99F084EE91E00E94131387E894E0A9
:101260000E94E91389EB9CE090937C0480937B04BB
:1012700082E694E00E942F1411C00E94B0184AE048
:1012800050E00E94FC160E94F81684ED91E00E9446
:10129000DD168AE00E94D8160E94BE032A960FB679
:1012A000F894DEBF0FBECDBFDF91CF911F9108959F
:1012B000CF93DF9300D000D01F92CDB7DEB70E944E
:1012C000B0184AE050E00E94FC160E94F81680EE2A
:1012D00090E00E94DD1660919C0470919D048091C5
:1012E0009E0490919F044AE050E00E94FC168AE020
:1012F0000E94D81680919C0490919D04A0919E0418
:10130000B0919F040297A105B10520F489ED90E00A
:101310000E9413138091940490919504A0919604D7
:10132000B0919704892B8A2B8B2B19F40E94BE0352
:1013300034C08091BC019091BD013091BF034091B8
:10134000C0032091BE032370246C29833A83382F75
:101350003295307F242F2F70232B2B839295907FF3
:1013600082958F70892B8C83CE0101960E94200775
:1013700081E080935F010E94BC1D20E931E040E0E4
:1013800050E00E94291EAB01BC01405C594F6F4FD9
:101390007F4F87E894E00E9417140F900F900F90F2
:1013A0000F900F90DF91CF910895FC01538D448DE4
:1013B000252F30E0842F90E0821B930B541710F000
:1013C000CF96089501970895FC01918D828D98170D
:1013D00061F0828DDF01A80FB11D5D968C91928D19
:1013E0009F5F9F73928F90E008958FEF9FEF089516
:1013F000FC01918D828D981731F0828DE80FF11DDF
:10140000858D90E008958FEF9FEF0895FC01918DF9
:10141000228D892F90E0805C9F4F821B91098F73F2
:101420009927089580E090E0892B29F00E94E41428
:1014300081110C9400000895982F80ED890F8A3057
:1014400070F08FEB890F863010F489EC05C08FE9BE
:10145000890F863018F489EA890F089580E008958D
:10146000CF93C82F803118F480E30E94D81660E132
:1014700070E08C2FCF910C941517CF93C82F892F24
:101480000E94300A8C2FCF910C94300A86E893E0AA
:101490000C940917FC018181813229F40E94000516
:1014A00085EB93E002C088EB93E00C9409170F934F
:1014B0001F93CF93DF9300D000D0CDB7DEB782EB80
:1014C00093E00E94091781E08093C30386EF94E0C4
:1014D0000E942F1480E197E2A0E0B0E089839A8314
:1014E000AB83BC8389819A81AB81BC8106EF14E018
:1014F000F80185839683A783B0870E94B018F8010E
:10150000618772878387948781899289A389B48947
:1015100085879687A787B08B0F900F900F900F90BD
:10152000DF91CF911F910F910895CF93DF93C0E08A
:10153000D0E0FE0183E0F695E7958A95E1F7E25465
:10154000FE4F808190E09E012770332702C0959561
:1015500087952A95E2F780FF09C08EE390E00E940C
:101560001C17CE010E943D0A0E9405172196C11545
:1015700080E1D807F1F68BE290E00E941C1785E429
:1015800090E00E941C17DF91CF910C940517CF9328
:10159000DF938BE290E00E941C1784E490E00E94AD
:1015A0001C17CEEBD1E089910E94300A83E0CE3B3C
:1015B000D807C9F7DF91CF910C9405178BE290E023
:1015C0000E941C1784E590E00E941C178091BE03C6
:1015D00090E0C0960E941C170C9405178BE290E0D7
:1015E0000E941C1783E490E00E941C178091BC01AC
:1015F0009091BD010E943D0A0C9405178BE290E08A
:101600000E941C1789E490E00E941C178091BF0380
:101610009091C0030E943D0A0C9405171F93CF932D
:10162000DF9387E993E00E94091710E084E0189F98
:10163000E0011124E0915105F0915205EC0FFD1FDE
:101640008081882319F180E290E00E941C17E091CC
:101650005105F0915205EC0FFD1F8081082E000C02
:10166000990B0E941C1780E290E00E941C17809149
:10167000510590915205C80FD91F6AE070E0898129
:101680000E9415170E9405171F5FD0CFDF91CF91E1
:101690001F910895FC01848DDF01A80FB11DA35A8D
:1016A000BF4F2C91848D90E001968F739927848F82
:1016B000A689B7892C93A089B1898C9183708064A5
:1016C0008C93938D848D981306C00288F389E02D46
:1016D00080818F7D80830895CF93DF93EC01888D87
:1016E0008823C9F0EA89FB89808185FD05C0A88926
:1016F000B9898C9186FD0FC00FB607FCF5CF8081AC
:1017000085FFF2CFA889B9898C9185FFEDCFCE01F5
:101710000E944A0BE7CFDF91CF9108958FEA93E0C3
:101720000E94091785EC93E00E946C0B1092C30392
:1017300086EF94E00C94E9139C0187709927892B1C
:1017400099F0C90188739927892B71F0C901807CB0
:101750009170892B49F0C90188279E70892B21F04F
:1017600081E02115304108F080E00895EF92FF926A
:101770000F931F93CF93DF93FC013196AC014B5F26
:101780005F4F219130ED320F3A3020F02F7D215400
:10179000263060F5E417F507A1F7E62E8C01FC0171
:1017A00081810E941C0AD82FF80182810E941C0AA4
:1017B000C82FF80183810E941C0AF82EF801848149
:1017C0000E941C0AF0E1DF9F900111242C2BC22FF4
:1017D000D0E0DC2FCC2790E1F99E90011124822BE0
:1017E000C82BCE010E949C0B81110AC088EB93E0AC
:1017F000DF91CF911F910F91FF90EF900C940917FB
:10180000D093C003C093BF030E94B0184AE050E0D9
:101810000E94FC160E94F81682EA93E00E94DD16F0
:101820008091BF039091C0030E9421178AE00E941B
:10183000D816C091BF0380E090E00E94131E8C1761
:1018400029F06C2F80E090E00E941B1EC091C00325
:1018500081E090E00E94131EC81729F06C2F81E0F0
:1018600090E00E941B1E6E2DC801DF91CF911F9149
:101870000F91FF90EF900C94FE0A0C941B1E809326
:10188000BE030E94B0184AE050E00E94FC160E947D
:10189000F8168FEB93E00E94DD166AE070E080910D
:1018A000BE030E9415178AE00E94D8166091BE03FD
:1018B00082E090E00E943D0C81E008951F93CF9359
:1018C000DF93FC0181818053843068F4162FEF018F
:1018D0000E943F0C882339F0612FCE01DF91CF9118
:1018E0001F910C94DE0A88EB93E0DF91CF911F915A
:1018F0000C940917CF938B3AC8F523E0829FC0015F
:101900001124FC01E254FE4F21912223D9F063E01F
:1019100070E00E948C1EC62F0E94B0184AE050E072
:101920000E94FC160E94F81688EF92E00E94DD16D5
:101930006AE070E08C2F0E9415178AE00E94D8168A
:101940008C2F15C00196811522E09207E9F60E94BE
:10195000B0184AE050E00E94FC160E94F8168AEE89
:1019600092E00E94DD168AE00E94D8168FEFCF9198
:1019700008951F93CF93DF9300D000D01F92CDB76F
:10198000DEB761E08DE00E947E1760917704709170
:1019900078048091790490917A046E317105810503
:1019A000910558F00E94B0184AE050E00E94FC16E1
:1019B0000E94F81680E693E0AFC02AE030E040E0F5
:1019C00050E00E945B1E613071058105910509F0B0
:1019D00049C00E94B0184AE050E00E94FC160E94E4
:1019E000F81682E593E00E94DD166AE070E08091CF
:1019F00060010E9415178AE00E94D816509160017C
:101A000023E0529FC00111249C012E5F3F4F2115FE
:101A100042E0340728F4F901E254FE4F408101C04E
:101A200040E09C012F5F3F4F211562E0360728F40C
:101A3000F901E254FE4F208105C0811522E0920792
:101A400034F420E0FC01E254FE4F808102C020E02B
:101A500080E059838A832B834C83CE0101960E94B8
:101A6000200766C0CE0101960E94A211882309F4C6
:101A70005FC089818C7F843D09F05AC02A819B8197
:101A8000392F3F704091BF035091C0032417350791
:101A900059F00E94B0184AE050E00E94FC160E94E3
:101AA000F81688E393E01CC08091600192959F70C6
:101AB0004C81542F5295507F252F292B342F32954E
:101AC0003F70482F50E02417350781F00E94B0186E
:101AD0004AE050E00E94FC160E94F8168EE193E066
:101AE0000E94DD168AE00E94D81622C08F5F0E94F5
:101AF0007A0C182F8093600160E08DE00E947E17C1
:101B00001F3F91F40E94B0184AE050E00E94FC167A
:101B10000E94F8168DE093E00E94DD168AE00E9494
:101B2000D8160E94BE0304C082E694E00E942F14DF
:101B30000F900F900F900F900F90DF91CF911F910A
:101B40000895CF92DF92EF92FF92CF93DF9300D070
:101B500000D0CDB7DEB786E296E00E94131380E096
:101B600090E00E946013F89480918A0180938B0129
:101B700084E080935C01789410925F0110925E0182
:101B800010925D010E94BC1D20E931E040E050E070
:101B90000E94291E6B017C0124E6C20ED11CE11CAF
:101BA000F11C87E894E00E942F14C982DA82EB824C
:101BB000FC82CD28CE28CF2829F089819A81AB815B
:101BC000BC8108C08091880490918904A0918A0406
:101BD000B0918B0480938C0490938D04A0938E0419
:101BE000B0938F040E94B018609390047093910496
:101BF0008093920490939304809198049091990417
:101C0000A0919A04B0919B048093940490939504BE
:101C1000A0939604B093970482E397E090937C049A
:101C200080937B044CE350E060E070E082E694E057
:101C30000E94171482E694E00E942F14809173048E
:101C400090917404A0917504B091760480936F0410
:101C500090937004A0937104B09372040F900F904E
:101C60000F900F90DF91CF91FF90EF90DF90CF908A
:101C70000895CF92DF92EF92FF920F931F93CF932D
:101C8000A0916C01B0916D0180916E0190916F01F6
:101C900060916201C09161015091670120916A01D8
:101CA00030916B010091680110916901009709F46E
:101CB00072C0FC0144914F3F99F460936201C0935C
:101CC00061015093670130936B0120936A01109377
:101CD00069010093680110926F0110926E016DC04E
:101CE0004E3F19F4FD014491CD01FC013196649100
:101CF0003196C4910396442309F443C090936F0135
:101D000080936E0160936201C0936101409367010B
:101D100030936B0120936A0110936901009368016D
:101D2000C42ED12CE12CF12C862F90E0A0E0B0E065
:101D3000BA2FA92F982F8827BC01CD01621B730BE6
:101D400081099109A70196010E94291E309366011D
:101D5000209365018C2F90E0A0E0B0E0BA2FA92F6E
:101D6000982F8827BC01CD01601B710B8109910957
:101D7000A70196010E94291E3093640120936301FC
:101D80001CC050E0262F30E0322F22270C2F10E00D
:101D9000102F00278BCF10926F0110926E0160936D
:101DA0006201C09361015093670130936B012093EE
:101DB0006A011093690100936801CF911F910F91FF
:101DC000FF90EF90DF90CF9008950F931F93CF93E4
:101DD000DF93CDB7DEB727970FB6F894DEBF0FBEFF
:101DE000CDBF0E94511800917A0110917B01209182
:101DF0007C0130917D01DC01CB01801B910BA20B9A
:101E0000B30B8C329140A105B10558F3E1EEF6E039
:101E1000E4918CE090E09A83898380917E018B83AA
:101E2000F89485B18E2B8C8385B1E095E823ED8302
:101E30008D818E838B8187FF02C08C818E835C8134
:101E40006D814B813E812F8189819A81EFE7F1E09D
:101E500055B9262F35B900C046FD252F65B900C0FC
:101E600055B9362F25B900C045FD352F65B900C0DD
:101E700055B9262F35B900C044FD252F65B900C0DE
:101E800055B9362F25B900C043FD352F65B900C0BF
:101E900055B9262F35B900C042FD252F65B900C0C0
:101EA00055B9362F25B900C041FD352F65B900C0A1
:101EB00055B9262F35B900C040FD252F65B90197CA
:101EC00055B9362F25B9419147FD352F65B901F632
:101ED0004B833E832F839A83898378940E94511881
:101EE00060937A0170937B0180937C0190937D01D4
:101EF00027960FB6F894DEBF0FBECDBFDF91CF910E
:101F00001F910F910895CF92DF92EF92FF928091EF
:101F10005C01882309F406C10E945118C090760123
:101F2000D0907701E0907801F09079019B01AC01AD
:101F30002C193D094E095F0969017A0126E0F694E2
:101F4000E794D794C7942A95D1F76093760170935C
:101F5000770180937801909379013FEFC316D10404
:101F6000E104F10411F008F0DAC082E00E94551794
:101F7000892BF1F088EE8C0D813210F481E0D0C015
:101F800080EA8C0D813810F485E0CAC080915C0134
:101F9000823021F48DEF8C0D853000F180915C0151
:101FA000863009F0BCC08AEF8C0D8930B8F0B7C01C
:101FB00080915C01813009F05CC084EF8C0D81312F
:101FC00008F057C082E080935C0185E0E0E7F1E033
:101FD000DF011D928A95E9F788E25DC080915C017E
:101FE0009091750191113AC094E090935C01E09159
:101FF0008A0146E0E49FF0011124E457FE4F91E08E
:10200000863009F090E09083A0918A0156E0A59F68
:10201000D0011124A357BE4F85E0E0E7F1E0019025
:102020000D928A95E1F780918A018F5F80938A01F2
:1020300080918A01877080938A0190918A018091B2
:102040008B0198136FC080918B018F5F80938B0100
:1020500080918B01877080938B0164C0863011F072
:1020600083E001C087E080935C018091750181501D
:1020700012C080915C01853089F490ED9C0D913403
:1020800068F496E090935C01E0E7F1E0DF011D92D7
:102090008A95E9F780E28093750144C080915C01E4
:1020A000833031F487EF8C0D8D3010F482E014C052
:1020B00080915C01833021F48DEF8C0D853050F0E0
:1020C00080915C01873009F58EEE8C0D8931E8F442
:1020D00086E002C082E024C080935C0120917501FB
:1020E000E0917501F0E083E0F595E7958A95E1F7D9
:1020F000E059FE4F277081E090E001C0880F2A95DB
:10210000EAF79081892B80830DC080915C01873034
:1021100031F48AEF8C0D893010F486E001C084E040
:1021200080935C01FF90EF90DF90CF900895E09155
:102130006B01F0E0ED5FFB4FE4916E2F70E086E005
:102140000E94E917E0916901F0E0ED5FFB4FE49137
:102150006E2F70E085E00C94E91780916701882369
:1021600091F18150809367018823E9F020916A0101
:1021700030916B018091650190916601820F931FF0
:1021800090936B0180936A012091680130916901FD
:102190008091630190916401820F931F9093690174
:1021A000809368010EC08091620110926A01809351
:1021B0006B018091610110926801809369010E9416
:1021C000390E0C94971008951F93CF93DF93EC0171
:1021D000162F0E94B0184AE050E00E94FC160E94A0
:1021E000F8168EEF810F823080F5133019F087E8F2
:1021F00095E002C08DE995E00E94DD16888160E1DE
:1022000070E08F730E9415178CE20E94D8168881A7
:1022100082958695869583709981292F220F220FAA
:10222000822B96FB992790F90E9421178CE20E943D
:10223000D8168981881F8827881F9A81292F220F05
:1022400097FB992790F9822B36C0123008F05CC0BA
:10225000888186958695807389F1113019F08DE516
:1022600095E002C080E795E00E94DD16888160E17C
:1022700070E0869586950E9415178CE20E94D8160C
:1022800088816AE070E083700E9415178CE20E94DA
:10229000D8169A8189819F700E9421178CE20E9432
:1022A000D8168A8182958F709B81292F2295207F55
:1022B000822B92959F700E94211726C0113019F031
:1022C0008DE395E002C08BE495E00E94DD166AE0A4
:1022D00070E088810E9415178CE20E94D81660E198
:1022E00070E089810E9415178CE20E94D81660E187
:1022F00070E08A810E9415178CE20E94D81660E176
:1023000070E08B810E9415178AE0DF91CF911F91B9
:102310000C94D816DC0180E0615098F02D91982F34
:102320009227E92FEF70F0E0E35EFA4F2491929547
:102330009F70E92FF0E0E35DFA4FE491822F8E2742
:10234000EBCF08951F93CF93DF93EC01F894909116
:102350008A0180918B01981739F1E0918B0186E019
:10236000E89FF0011124E457FE4F8081811102C0E3
:1023700081E001C082E0E0918B0196E0E99FF001ED
:102380001124E357FE4F95E0DE0101900D929A95DE
:10239000E1F790918B019F5F90938B0190918B015E
:1023A000977090938B0101C080E07894823009F09F
:1023B00041C01B8163E0CE010E948A11181347C0FF
:1023C0008881982F9F739A3029F0923109F03FC08D
:1023D00058E301C057E382958695869583704981BD
:1023E000342F330F330F382B942F991F9927991FB0
:1023F0008A81282F220F292B87FB882780F9398390
:10240000922F9295907F46FB442740F9492B4A83AF
:10241000982F9295907F822F82958F70892B8B8336
:10242000550F550F58831C8261E0CE010E94E410C5
:1024300091E00EC0813059F461E0CE010E94E410B9
:102440001C8164E0CE010E948A1191E0181390E093
:10245000892FDF91CF911F910895CF92DF92EF9254
:10246000FF920F931F93CF93DF936C01C62FD42F4E
:1024700010925C0161E083E00E94AD1760E083E0B0
:102480000E947E1781E08093B00089E08093B100C4
:1024900089E68093B30083E28093B4008091B0001A
:1024A00080628093B000D11103C080E493E202C047
:1024B00080ED98E00E9448188091B0008F7D809355
:1024C000B000D11103C080EA91E102C088E694E037
:1024D0000E944818DD2339F00AE111E02EE4E22ED3
:1024E00023E0F22E06C004E312E09CE9E92E96E018
:1024F000F92ECC0FCC0FCC0FC1508091B000806270
:102500008093B000CF3F11F1C8010E94481880911C
:10251000B0008F7D8093B000EC2FF0E083E0F59564
:10252000E7958A95E1F7EC0DFD1D808190E02C2F59
:10253000277002C0959587952A95E2F780FF02C023
:10254000C70101C0C8010E944818D6CFD11103C0ED
:1025500084E392E002C08AE191E00E9448188091F1
:10256000B0008F7D8093B00060E083E00E94AD17E3
:1025700084E080935C01DF91CF911F910F91FF90D8
:10258000EF90DF90CF900895CF93C82F0E94B0189E
:102590004AE050E00E94FC160E94F8168FE095E099
:1025A0000E94DD168C2F90E00E9427178AE00E947F
:1025B000D816CC2349F061E084E00E94AD1761E0B9
:1025C00084E00E947E170BC0E89883EB94E190931F
:1025D00001018093000160E084E00E94AD176AE091
:1025E00070E080E090E00E947618CC23D1F084E087
:1025F00080935C010E94511860937601709377017B
:10260000809378019093790183E89FE09093010192
:1026100080930001809169008C7F816080936900C4
:10262000E89ACF91089590936F0180936E019093F3
:102630006D0180936C010C94390ECF93C82F0E94CA
:10264000B0184AE050E00E94FC160E94F81683E0A1
:1026500095E00E94DD168C2F90E00E9427178AE0FB
:102660000E94D816CC23F9F061E086E00E94AD17F5
:1026700061E085E00E94AD1761E08DE00E94AD173A
:1026800060E08DE00E947E1710926B0110926A014B
:10269000109269011092680110926F0110926E0100
:1026A000CF910C94971060E086E00E94AD1760E037
:1026B00085E00E94AD1760E08DE0CF910C94AD17DE
:1026C000CF93DF93EC010E94B0184AE050E00E94E3
:1026D000FC160E94F81687EF93E00E94DD16CE01EB
:1026E0000E9421178AE00E94D81684E02EE731E08C
:1026F000FE01E770FF27AF01440F551FE40FF51FE0
:10270000E152FC4FD901AF014D5F5F4F94919D9312
:102710003196E417F507D1F72D5F3F4F93E0D6953B
:10272000C7959A95E1F7815019F7DF91CF910C94F5
:10273000E50ECF93C82F0E94B0184AE050E00E94E7
:10274000FC160E94F81681ED93E00E94DD168C2F96
:1027500090E00E9427178AE00E94D816CC2381F1CE
:10276000F89461E08AE00E94AD1761E087E00E9482
:10277000AD1760E08AE00E947E1760E087E00E946B
:102780007E1710927E0110927F01109280011092AC
:1027900081011092820110928301109284011092A3
:1027A0008501109286011092870110928801109283
:1027B00089010E94E50E0E94E50E7894CF9108955C
:1027C00060E08AE00E94AD1760E087E0CF910C9452
:1027D000AD17EF92FF921F93CF93DF93DC018C91A3
:1027E0009C919E7F9C939C919D7F9C93182F117030
:1027F00080FF16C05D96ED91FC915E97309781F059
:10280000ED01ABA1BCA11496ED90FC901597159627
:10281000DC93CE9314970995EBA1FCA1F582E48299
:10282000812FDF91CF911F91FF90EF900895CF936B
:10283000DF93EC0149835A836B837C8389819A817E
:10284000AB81BC818D839E83AF83B8870E94B01813
:1028500069877A878B879C87DF91CF9108950F9343
:102860001F93CF93DF93FC01A3A1B4A11097E9F1CB
:10287000EC01158A168A178A108E038CF48DE02DD0
:10288000309779F1888181FD2CC014960D911C91AF
:1028900015971596DC93CE93149788818260888370
:1028A0000995988180FB90F9988388818D7F888332
:1028B000EBA1FCA1158304830E94B01809811A8141
:1028C0002B813C810D831E832F833887DC01CB0154
:1028D000801B910BA20BB30B89879A87AB87BC87B0
:1028E00004C0888181608883E7CFDF91CF911F91F9
:1028F0000F910895CF93DF93EC010E94E9138BA110
:102900009CA1009769F11CA21BA2EF8DF8A1A9A1BF
:10291000BAA1309799F4109749F4DC0111961C92F2
:102920001E9213961C921E9212971AC090961C9299
:102930001E925F97FC01B183A08312C0109741F4EF
:1029400012A211A2DC011396FC93EE93129708C019
:10295000B2A3A1A3A9A1BAA19096FC93EE935F970D
:10296000DF91CF9108950895CF92DF92EF92FF9279
:102970000F931F93CF93DF936C017A018B01C0E01B
:10298000D0E0CE15DF0581F0D8016D918D01D60123
:10299000ED91FC910190F081E02DC6010995892B04
:1029A00011F02196EECF7E01C701DF91CF911F91EB
:1029B0000F91FF90EF90DF90CF900895089580E001
:1029C00090E008950E94A61E85EC93E00E94060AFE
:1029D00021E0892B09F420E0822F0895EF92FF92E5
:1029E0000F931F93CF93DF93EC0181E0888F9B8D32
:1029F0008C8D981305C0E889F989808185FD26C0F2
:102A0000F62E0B8D10E00F5F1F4F0F731127E02E76
:102A10008C8DE8120CC00FB607FCFACFE889F98953
:102A2000808185FFF5CFCE010E944A0BF1CF8B8DBF
:102A3000FE01E80FF11DE35AFF4FF0829FB7F894B3
:102A40000B8FEA89FB89808180620AC09FB7F89466
:102A5000EE89FF896083E889F989808183708064C9
:102A600080839FBF81E090E0DF91CF911F910F9114
:102A7000FF90EF9008951F920F920FB60F921124BE
:102A80002F933F934F935F936F937F938F939F9376
:102A9000AF93BF93EF93FF93E0910201F091030195
:102AA0000995FF91EF91BF91AF919F918F917F9188
:102AB0006F915F914F913F912F910F900FBE0F90AB
:102AC0001F9018951F920F920FB60F9211242F93FB
:102AD0003F934F935F936F937F938F939F93AF93A6
:102AE000BF93EF93FF93E0910001F09101010995ED
:102AF000FF91EF91BF91AF919F918F917F916F91D6
:102B00005F914F913F912F910F900FBE0F901F90AB
:102B100018951F920F920FB60F9211242F933F9387
:102B20004F935F936F937F938F939F93AF93BF93D5
:102B3000EF93FF9385EC93E00E944A0BFF91EF9196
:102B4000BF91AF919F918F917F916F915F914F91C5
:102B50003F912F910F900FBE0F901F9018951F92CD
:102B60000F920FB60F9211242F938F939F93EF9391
:102B7000FF93E091D503F091D6038081E091DB03D0
:102B8000F091DC0382FD12C090818091DE038F5FA3
:102B90008F732091DF03821751F0E091DE03F0E0A4
:102BA000EB53FC4F958F8093DE0301C08081FF9132
:102BB000EF919F918F912F910F900FBE0F901F90CB
:102BC0001895833081F028F4813099F08230A1F09B
:102BD00008958730A9F08830B9F08430D1F480911D
:102BE00080008F7D03C0809180008F77809380006C
:102BF000089584B58F7702C084B58F7D84BD089514
:102C00008091B0008F7703C08091B0008F7D80935A
:102C1000B0000895009769F0FC0101900020E9F7E9
:102C20003197AF01481B590BBC0185EC93E00C9424
:102C3000B41480E090E008958F929F92AF92BF927B
:102C40000F931F93CF93DF93CDB7DEB7A1970FB646
:102C5000F894DEBF0FBECDBF19A2423008F44AE09F
:102C60008E010F5D1F4F842E912CA12CB12CA5013C
:102C700094010E945B1EE62FB901CA01015011099F
:102C8000EA3014F4E05D01C0E95CD801EC93232B39
:102C9000242B252B61F7C8010E940A16A1960FB6B6
:102CA000F894DEBF0FBECDBFDF91CF911F910F9182
:102CB000BF90AF909F908F9008958F929F92AF9208
:102CC000BF92CF92EF92FF920F931F93CF93DF9318
:102CD000EC014801590188818E7F888388818D7F2E
:102CE000888319861A861B861C861D821E821F8277
:102CF000188619821A821B821C8218A21F8E1AA2A1
:102D000019A21CA21BA21D8A1E8A1F8A188EFA8E67
:102D1000E98E1C8E1B8E1E8E1D8ECE010E941714F6
:102D20008D869E86AF86B88A898A9A8AAB8ABC8A43
:102D30008BA19CA184559540F9F084E595E09CA376
:102D40008BA38091540590915505892B39F4D0932C
:102D50005505C093540518A21F8E08C0E091560572
:102D6000F0915705F8A3EF8FD2A3C1A31AA219A21D
:102D7000D0935705C0935605CC2071F0CE01DF915A
:102D8000CF911F910F91FF90EF90CF90BF90AF9098
:102D90009F908F900C942F14DF91CF911F910F91E2
:102DA000FF90EF90CF90BF90AF909F908F9008953D
:102DB000682F85EC93E00C94EE140F931F93CF9340
:102DC000DF938C01C0E0D0E0F801EC0FFD1F6491AF
:102DD000662341F085EC93E00E94EE14892B11F0FC
:102DE0002196F2CFCE01DF91CF911F910F910895DF
:102DF00084E591E00C940A164115510521F485EC07
:102E000093E00C94EE140C941C1688E591E00C945D
:102E10000A16CF93DF930E94DD16EC010E9405177E
:102E20008C0F9D1FDF91CF910895AB01682F70E04B
:102E300080E090E00C94FC16682F85EC93E00C94F5
:102E4000EE14BC0180E090E04AE00C941C16CF9296
:102E5000DF92EF92FF92CF93DF936C01990FEE0810
:102E6000FF08F7FE17C08DE20E94D816EC01662716
:102E70007727CB016C197D098E099F094AE00E94D2
:102E80001C168C0F9D1FDF91CF91FF90EF90DF906C
:102E9000CF9008954AE0C701B601DF91CF91FF902E
:102EA000EF90DF90CF900C941C16CF93DF93282FD8
:102EB00030E0F901E551F94F8491F901E952F94FF8
:102EC000D491F901ED53F94FC491CC2391F08111C4
:102ED0000E94E115EC2FF0E0EE0FFF1FE754F94FD1
:102EE000A591B491EC91ED2381E090E021F480E094
:102EF00002C080E090E0DF91CF9108951F93CF93BF
:102F0000DF93282F30E0F901E551F94F8491F90161
:102F1000E952F94FD491F901ED53F94FC491CC2303
:102F2000C1F0162F81110E94E115EC2FF0E0EE0F99
:102F3000FF1FE155F94FA591B4919FB7F894111176
:102F400004C08C91D095D82302C0EC91DE2BDC9389
:102F50009FBFDF91CF911F910895CF93DF9390E0B2
:102F6000FC01E952F94F2491FC01ED53F94F849192
:102F7000882361F190E0880F991FFC01EB55F94F10
:102F8000C591D491FC01E155F94FA591B49161111E
:102F900009C09FB7F8948881209582238883EC919B
:102FA0002E230BC0623061F49FB7F8948881322FD2
:102FB000309583238883EC912E2B2C939FBF06C0E2
:102FC0008FB7F894E8812E2B28838FBFDF91CF91A4
:102FD00008951F93CF93DF93182FEB0161E00E94B8
:102FE000AD17209711F460E004C0CF3FD10539F44C
:102FF00061E0812FDF91CF911F910C947E17E12F1B
:10300000F0E0E551F94FE491E330F9F048F4E130B4
:10301000B9F0E230A1F584B5806284BDC8BD34C08A
:10302000E730E9F0E83019F1E43049F580918000AB
:10303000806280938000D0938B00C0938A0024C06C
:1030400084B5806884BDC7BD1FC080918000806842
:1030500080938000D0938900C093880015C0809130
:10306000B00080688093B000C093B3000DC0809121
:10307000B00080628093B000C093B40005C0C03837
:10308000D1050CF0B5CFAFCFDF91CF911F9108954F
:103090008330910528F0880F991F04970197F1F765
:1030A00008953FB7F89480915F0590916005A091D5
:1030B0006105B091620526B5A89B05C02F3F19F0A8
:1030C0000196A11DB11D3FBFBA2FA92F982F8827A8
:1030D000820F911DA11DB11DBC01CD0143E0660F02
:1030E000771F881F991F4A95D1F708958F929F9255
:1030F000AF92BF92CF92DF92EF92FF926B017C0171
:103100000E9451184B015C01C114D104E104F10487
:10311000F1F00E945118DC01CB0188199909AA0924
:10312000BB09883E9340A105B10570F321E0C21AA6
:10313000D108E108F10888EE880E83E0981EA11CF2
:10314000B11CC114D104E104F10419F7DDCFFF90E3
:10315000EF90DF90CF90BF90AF909F908F900895A9
:103160002FB7F89460915B0570915C0580915D05C7
:1031700090915E052FBF08951F920F920FB60F9288
:1031800011242F933F938F939F93AF93BF9380917D
:103190005B0590915C05A0915D05B0915E05309155
:1031A0005A0526E0230F2D3720F40296A11DB11DEC
:1031B00005C029E8230F0396A11DB11D20935A05D0
:1031C00080935B0590935C05A0935D05B0935E05CD
:1031D00080915F0590916005A0916105B0916205B5
:1031E0000196A11DB11D80935F0590936005A0938A
:1031F0006105B0936205BF91AF919F918F913F910F
:103200002F910F900FBE0F901F90189582E694E0BB
:103210000E947A1487E894E00E947A148CEA94E081
:103220000E947A1481ED94E00E947A1486EF94E073
:103230000E947A148BE195E00C947A14CF93DF937B
:1032400000D000D000D0CDB7DEB7789484B58260CE
:1032500084BD84B5816084BD85B5826085BD85B53A
:10326000816085BD80916E00816080936E001092B8
:103270008100809181008260809381008091810033
:1032800081608093810080918000816080938000C4
:103290008091B10084608093B1008091B000816022
:1032A0008093B00080917A00846080937A0080914E
:1032B0007A00826080937A0080917A008E7F80937A
:1032C0007A0080917A00806880937A001092C10021
:1032D000E091D503F091D60382E08083E091D103A1
:1032E000F091D2031082E091D303F091D40383E3F1
:1032F00080831092DD03E091D903F091DA0386E038
:103300008083E091D703F091D8038081806180832E
:10331000E091D703F091D803808188608083E091A9
:10332000D703F091D803808180688083E091D70330
:10333000F091D80380818F7D80830E94B0184AE08D
:1033400050E00E94FC160E94F8168DE196E00E9463
:10335000DD168AE00E94D81662E089E00E94AD176F
:1033600062E088E00E94AD1780917A008F778093A9
:103370007A0083E080936B0083B7817F846083BF92
:103380008CE0EEE7F1E0DF011D928A95E9F71092FB
:103390007A0110927B0110927C0110927D0181E0F4
:1033A0000E94991381E00E941D1360E082E00E9458
:1033B000AD1780E3ECE8F1E0DF011D928A95E9F7B3
:1033C00010928B0110928A0181E00E94C41280E069
:1033D00090E00E94131E8093BF0381E090E00E9462
:1033E000131E8093C0030E94B0184AE050E00E9470
:1033F000FC160E94F81688EF95E00E94DD16809179
:10340000BF039091C0030E9421178AE00E94D81642
:103410008091BF039091C0030E949C0B81110FC04B
:103420000E94B0184AE050E00E94FC160E94F81674
:1034300080EE95E00E94DD168AE00E94D81682E0B8
:1034400090E00E94131E8093BE038430B0F00E946F
:10345000B0184AE050E00E94FC160E94F81687EC73
:1034600095E00E94DD168AE00E94D8161092BE03F5
:1034700060E082E090E00E943D0C0E94B0184AE0BB
:1034800050E00E94FC160E94F8168EEB95E00E9418
:10349000DD166AE070E08091BE030E9415178AE095
:1034A0000E94D81683E090E00E94131E182F84E03B
:1034B00092E00E94131E1B3521F58A3211F50E94FD
:1034C000B0184AE050E00E94FC160E94F8168FEAFD
:1034D00095E00E94DD168AE00E94D8169EEBE92E48
:1034E00091E0F92E04E010E0C8010E94131EF701DC
:1034F00081937F010F5F1F4F0430F2E01F07A1F798
:1035000002C00E9400050E945B059093BD0180935C
:10351000BC010E94460581E08093C3031092C4035E
:1035200086EF94E00E942F1484EC99E0A0E0B0E0D4
:1035300089839A83AB83BC8389819A81AB81BC8167
:103540008093FB049093FC04A093FD04B093FE04CD
:103550000E94B0186093FF047093000580930105EA
:10356000909302058091070590910805A0910905A7
:10357000B0910A058093030590930405A093050577
:10358000B09306056091BF037091C00380E090E0A6
:10359000611571058105910511F00E940A1E0E94B6
:1035A000B0184AE050E00E94FC160E94F81685E030
:1035B00096E00E94DD168AE00E94D81684E091E031
:1035C000909352058093510561E086E00E947E173A
:1035D00061E085E00E947E1766E970E080E090E09F
:1035E0000E94761860E086E00E947E1760E085E029
:1035F0000E947E1764E670E080E090E00E947618FA
:1036000061E086E00E947E1761E085E00E947E17FF
:1036100066E970E080E090E00E94761860E086E065
:103620000E947E1760E085E00E947E1781E0809313
:10363000C4030E94B0184AE050E00E94FC160E94A9
:10364000F8168FEF95E00E94DD168AE00E94D816EA
:10365000332433942224239483E0882E912CA12CAC
:10366000B12C0BE414E08091C403882309F4AEC0AC
:103670008091C3038111AAC00E94991380E00E9427
:103680001D1380E00E94C4120E94B0184AE050E06E
:103690000E94FC160E94F8168EE496E00E94DD1649
:1036A0008AE00E94D81685EC93E00E946C0BF89497
:1036B000D89A3092680083B7816083BF85B78066EF
:1036C00085BF8F7D85BF7894889583B78E7F83BFB4
:1036D000789461E070E080E090E00E9476180E94AB
:1036E0000007F82E882319F381E00E94991381E0E6
:1036F0000E941D1381E00E94C4120E94B0184AE08B
:1037000050E00E94FC160E94F8168FE396E00E949B
:10371000DD166AE070E08F2D0E9415178AE00E9486
:10372000D8161092C403F0FE03C00E94A10D4EC033
:10373000F1FE4CC086E296E00E9413131092C20381
:103740001092C1038092DE049092DF04A092E00404
:10375000B092E1048092E2049092E304A092E40427
:10376000B092E5041093EB040093EA044CED55E0AD
:1037700060E070E081ED94E00E94171481ED94E028
:103780000E942F148091E2049091E304A091E4043C
:10379000B091E5048093DE049093DF04A093E004ED
:1037A000B093E1048CEA94E00E942F148091BD0450
:1037B0009091BE04A091BF04B091C0048093B9045D
:1037C0009093BA04A093BB04B093BC0485EC93E03F
:1037D0000E94E4098A30910509F047C080915305A1
:1037E000882349F0109253051092500583E996E022
:1037F0000E9409174FC060915005662309F44AC022
:10380000E62FF0E0E05CFA4F1082209151053091F4
:1038100052052115310519F480E896E021C0409148
:10382000400580E0F90194E0899FE00DF11D11242D
:103830009081992399F094130FC0918169130CC062
:103840000280F381E02D309721F080E495E0099526
:1038500009C08EE696E004C08F5FE4CF8DE596E068
:103860000E9409171092500515C097FD13C08D30A6
:10387000910581F0E091500591E09E0F90935005E5
:10388000F0E0E05CFA4F8083903120F01092500518
:1038900020925305809154059091550590935905B8
:1038A00080935805E0915805F0915905309709F437
:1038B00070C0A1A1B2A1BE83AD83808180FF62C030
:1038C00085859685A785B089892B8A2B8B2B21F43A
:1038D000CF010E94E91356C00E94B018E09158052C
:1038E000F09159054180528063807480C184D284F4
:1038F000E384F4842581368147815085DC01CB0146
:103900008C199D09AE09BF0982179307A407B50753
:10391000C8F185859685A785B089181619061A06F7
:103920001B065CF485859685A785B0890197A1095A
:10393000B10985879687A787B08B85899689A789DE
:10394000B08D0196A11DB11D858B968BA78BB08F75
:10395000458156816781708581859285A385B4856F
:10396000840F951FA61FB71F81879287A387B487EF
:103970004582568267827086018CF28DE02D3097E9
:1039800009F00995ED81FE81F0935905E093580502
:1039900089CF0E94120A67CECF92EF92FF920F93C7
:1039A0001F93E5ECF3E01382128288EE93E0A0E02F
:1039B000B0E084839583A683B78386E491E0918306
:1039C000808385EC90E09587848784EC90E09787EE
:1039D000868780EC90E0918B808B81EC90E0938BDC
:1039E000828B82EC90E0958B848B86EC90E0978BB9
:1039F000868B118E128E138E148EE4E5F5E0118203
:103A000010821382128215821482E0E4F5E0108A9B
:103A10001082128A118A138ACC24C3948DEAE82E6C
:103A200080E1F82E0FEF1FEF980144E150E060E0D5
:103A300070E08BE195E00E945D16C12C9CEAE92EB6
:103A400093E0F92E01E010E020E030E041E050E0AA
:103A500060E070E086EF94E00E945D162DEDE22EAE
:103A600023E0F22E0FEF1FEF980148EE53E060E0E5
:103A700070E081ED94E00E945D1631E1E32E37E0C5
:103A8000F32E0FEF1FEF980144E150E060E070E08B
:103A90008CEA94E00E945D1648E5E42E49E0F42E9D
:103AA00004E010E020E030E048EE53E060E070E039
:103AB00087E894E00E945D1652E3E52E57E0F52E6C
:103AC0000FEF1FEF98014CE350E060E070E082E6FA
:103AD00094E00E945D161F910F91FF90EF90CF90A0
:103AE00008958F929F92AF92BF92CF92DF92EF9202
:103AF000FF92CF93DF93EC01688179818A819B816A
:103B0000611571058105910521F464E279ED8BE57C
:103B100097E02DE133EF41E050E00E94291E49017A
:103B20005A019B01AC01A7EAB1E40E94481E6B0157
:103B30007C01ACEEB4EFA50194010E94561EDC019D
:103B4000CB018C0D9D1DAE1DBF1DB7FF03C001979E
:103B5000A109B04888839983AA83BB83BC01CD01A6
:103B60009F77DF91CF91FF90EF90DF90CF90BF9044
:103B7000AF909F908F9008958F929F92AF92BF9237
:103B8000CF92DF92EF92FF926091380170913901EC
:103B900080913A0190913B01611571058105910574
:103BA00021F464E279ED8BE597E02DE133EF41E01C
:103BB00050E00E94291E49015A019B01AC01A7EA6D
:103BC000B1E40E94481E6B017C01ACEEB4EFA5018C
:103BD00094010E94561EDC01CB018C0D9D1DAE1D73
:103BE000BF1DB7FF03C00197A109B04880933801FA
:103BF00090933901A0933A01B0933B01BC01CD01F0
:103C00009F77FF90EF90DF90CF90BF90AF909F9005
:103C10008F900895609338017093390180933A0131
:103C200090933B010895F999FECF92BD81BDF89A1A
:103C3000992780B50895262FF999FECF1FBA92BD16
:103C400081BD20BD0FB6F894FA9AF99A0FBE01967D
:103C50000895052E97FB1EF400940E94401E57FD08
:103C600007D00E945B1E07FC03D04EF40C94401E4C
:103C700050954095309521953F4F4F4F5F4F089598
:103C800090958095709561957F4F8F4F9F4F0895C8
:103C90000E947D1EA59F900DB49F900DA49F800D46
:103CA000911D11240895B7FF0C94481E0E94481ED0
:103CB000821B930B0895A1E21A2EAA1BBB1BFD01C8
:103CC0000DC0AA1FBB1FEE1FFF1FA217B307E407FB
:103CD000F50720F0A21BB30BE40BF50B661F771F53
:103CE000881F991F1A9469F7609570958095909533
:103CF0009B01AC01BD01CF010895A29FB001B39F0C
:103D0000C001A39F700D811D1124911DB29F700DE4
:103D1000811D1124911D0895AA1BBB1B51E107C0F1
:103D2000AA1FBB1FA617B70710F0A61BB70B881F4B
:103D3000991F5A95A9F780959095BC01CD010895DA
:103D4000EE0FFF1F0590F491E02D099481E090E0C3
:103D5000F8940C94AB1E13E0C1E8D3E004C0FE015C
:103D60000E94A01E2196C238D107C9F7F894FFCF50
:103D7000B314B3144901FE0A4905B60B5401DE0A17
:103D800054025E0C4301EE0A4401C70A4501950A3C
:103D900053018E0B46024A0A5701570A3F01460A51
:103DA00048010E0B000000000100000092042409ED
:103DB000490200000000EE14B414D5096C0B060A89
:0C3DC000E409F809207C20000D0A000036
:107800000C94343C0C94513C0C94513C0C94513CE1
:107810000C94513C0C94513C0C94513C0C94513CB4
:107820000C94513C0C94513C0C94513C0C94513CA4
:107830000C94513C0C94513C0C94513C0C94513C94
:107840000C94513C0C94513C0C94513C0C94513C84
:107850000C94513C0C94513C0C94513C0C94513C74
:107860000C94513C0C94513C11241FBECFEFD8E036
:10787000DEBFCDBF11E0A0E0B1E0EAE8FFE702C063
:1078800005900D92A230B107D9F712E0A2E0B1E065
:1078900001C01D92AD30B107E1F70E942D3D0C945F
:1078A000C33F0C94003C982F95959595959595958B
:1078B000905D8F708A307CF0282F295A8091C0000B
:1078C00085FFFCCF9093C6008091C00085FFFCCF60
:1078D0002093C6000895282F205DF0CF982F809127
:1078E000C00085FFFCCF9093C6000895EF92FF92F1
:1078F0000F931F93EE24FF2487018091C00087FD22
:1079000017C00894E11CF11C011D111D81E2E8164D
:1079100081EAF80687E0080780E0180770F3E09135
:107920000401F091050109958091C00087FFE9CF1E
:107930008091C6001F910F91FF90EF9008950E94D3
:10794000763C982F8091C00085FFFCCF9093C600B5
:1079500091362CF490330CF09053892F089597555D
:10796000892F08951F930E949F3C182F0E949F3CCF
:107970001295107F810F1F9108951F93182F882350
:1079800021F00E94763C1150E1F71F9108951F935A
:10799000182F0E94763C803249F0809103018F5F5E
:1079A000809303018530C1F01F9108958091C0003C
:1079B00085FFFCCF84E18093C6008091C00085FFE5
:1079C000FCCF1093C6008091C00085FFFCCF80E102
:1079D0008093C6001F910895E0910401F091050184
:1079E00009951F9108950E94763C803241F0809164
:1079F00003018F5F80930301853081F008958091AA
:107A0000C00085FFFCCF84E18093C6008091C00058
:107A100085FFFCCF80E18093C6000895E0910401CA
:107A2000F09105010995089548EC50E08823A1F0F4
:107A30002D9A28EE33E0FA013197F1F721503040CA
:107A4000D1F72D9828EE33E0FA013197F1F7215064
:107A50003040D1F7815061F708953F924F925F9285
:107A60006F927F928F929F92AF92BF92CF92DF924E
:107A7000EF92FF920F931F93CF93DF93000082E06A
:107A80008093C00080E18093C4001092C50088E11B
:107A90008093C10086E08093C2005098589A259A3E
:107AA00081E00E94143D24E1F22E9EE1E92E85E959
:107AB000D82E0FE0C02E10E1B12EAA24A394B1E479
:107AC0009B2EA6E58A2EF2E57F2EE0E26E2E79E46B
:107AD000572E63E5462E50E5352E0E94763C8033C6
:107AE000B1F18133B9F1803409F46FC0813409F404
:107AF00076C0823409F485C0853409F488C08035A5
:107B000031F1823521F1813511F1853509F485C0D6
:107B1000863509F48DC0843609F496C0843709F49B
:107B200003C1853709F472C1863709F466C08091B4
:107B300003018F5F80930301853079F6E0910401A2
:107B4000F091050109950E94763C803351F60E9420
:107B5000F33CC3CF0E94763C803249F78091C0004D
:107B600085FFFCCFF092C6008091C00085FFFCCF5E
:107B70009092C6008091C00085FFFCCF8092C60025
:107B80008091C00085FFFCCF7092C6008091C0003C
:107B900085FFFCCF6092C6008091C00085FFFCCFBE
:107BA0005092C6008091C00085FFFCCF4092C60075
:107BB0008091C00085FFFCCF3092C6008091C0004C
:107BC00085FFFCCFB092C60088CF0E94763C8638F5
:107BD00008F4BDCF0E94763C0E94F33C7ECF0E9409
:107BE000763C803809F49CC0813809F40BC1823896
:107BF00009F430C1883909F48FC080E00E94C73C85
:107C00006CCF84E10E94BD3C0E94F33C66CF85E0CE
:107C10000E94BD3C0E94F33C60CF0E94763C809362
:107C200006010E94763C809307010E94F33C55CFE9
:107C30000E94763C803309F411C183E00E94BD3C70
:107C400080E00E94C73C49CF0E94763C80930902A5
:107C50000E94763C8093080280910C028E7F809374
:107C60000C020E94763C853409F409C18091080217
:107C700090910902892B89F000E010E00E94763C87
:107C8000F801E85FFE4F80830F5F1F4F809108026D
:107C9000909109020817190788F30E94763C8032F8
:107CA00009F045CF80910C0280FFF5C0609106017C
:107CB00070910701660F771F7093070160930601AB
:107CC000A0910802B09109021097C9F0E8E0F1E034
:107CD0009B01AD014E0F5F1FF999FECF32BD21BD53
:107CE000819180BDFA9AF99A2F5F3F4FE417F5070B
:107CF00099F76A0F7B1F70930701609306018091CB
:107D0000C00085FFFCCFF092C6008091C00085FFC7
:107D1000FCCFB092C600E1CE83E00E94C73CDDCE2E
:107D200082E00E94C73CD9CE0E94763C8093090233
:107D30000E94763C80930802809106019091070191
:107D4000880F991F90930701809306010E94763C4B
:107D5000853409F49AC080910C028E7F80930C02C6
:107D60000E94763C803209F0B8CE8091C00085FF39
:107D7000FCCFF092C600A0910802B09109021097C2
:107D8000C1F180910C02082F0170182F1695117007
:107D9000E0910601F0910701AF014F5F5F4FBA011B
:107DA00020E030E00023B1F4112339F49491809164
:107DB000C00085FFFCCF9093C6002F5F3F4FCB01E3
:107DC0000196FA012A173B0780F4BC014F5F5F4F11
:107DD000002351F3F999FECFF2BDE1BDF89A90B5B9
:107DE0008091C00085FFFCCFE6CF709307016093C0
:107DF00006018091C00085FDE5CE8091C00085FF21
:107E0000F8CFE0CE81E00E94C73C67CE0E94763C6E
:107E1000803209F08CCE8091C00085FFFCCFF092BB
:107E2000C6008091C00085FFFCCFE092C600809123
:107E3000C00085FFFCCFD092C6008091C00085FFB6
:107E4000FCCFC092C6008091C00085FFFCCFB092ED
:107E5000C60043CE80E10E94C73C3FCE0E94763CE4
:107E60000E94763C182F0E94763C112309F483C0AF
:107E7000113009F484C08FE00E94C73C2ECE80915F
:107E80000C02816080930C02F1CE80910C02816023
:107E900080930C0265CF809107018823880F880B9F
:107EA0008A2180930B028091060190910701880F2F
:107EB000991F90930701809306018091080280FF2B
:107EC00009C08091080290910902019690930902DD
:107ED00080930802F894F999FECF1127E0910601EA
:107EE000F0910701C8E0D1E0809108029091090269
:107EF000103091F40091570001700130D9F303E084
:107F000000935700E8950091570001700130D9F3B4
:107F100001E100935700E8950990199000915700EE
:107F200001700130D9F301E000935700E8951395F3
:107F3000103498F011270091570001700130D9F3E7
:107F400005E000935700E89500915700017001305B
:107F5000D9F301E100935700E8953296029709F0B2
:107F6000C7CF103011F00296E5CF11248091C000E8
:107F700085FFC5CEC8CE8EE10E94C73CAECD85E957
:0A7F80000E94C73CAACDF894FFCF81
:027F8A00800075
:040000030000780081
:00000001FF
