:100000000C9400020C94E40B0C94BD0B0C9428028D
:100010000C9428020C9428020C9428020C942802B8
:100020000C9428020C9428020C9428020C942802A8
:100030000C9428020C9428020C9428020C94280298
:100040000C94870E0C9428020C94310C0C940B0C1D
:100050000C9428020C9428020C9428020C94280278
:100060000C9428020C9428025265736574204C4548
:100070004473000000000023002600290053656E31
:10008000742049522064756D702000526563656963
:100090007665642049522064756D70200053656E4A
:1000A0007420495220636F6D6D616E64203078005A
:1000B000526563656976656420495220636F6D6D92
:1000C000616E64203078005365656E20696473202A
:1000D000636F756E743A2000466F726D6174746957
:1000E0006E672073746F72616765004E6F74686924
:1000F0006E6720746F2064756D7000010103030248
:10010000020343546869732064756D70206973201D
:100110006E6F74206F75727300476F74206F776E07
:10012000206964206F6E2070726573656E63652C44
:100130002069676E6F72696E67004D61726B696EE0
:1001400067206964207365656E3A200003000040F3
:10015000436F6E6669726D6564206E6577206261BB
:10016000646765200000030343436F6E6669726D28
:1001700065642070726576207365656E20626164C7
:1001800067652000556E65787065637465642062EC
:10019000616467652049443A2000496E76616C6964
:1001A0006420626164676520696400546869732033
:1001B000636F6E6669726D206973206E6F74206F55
:1001C0007572730054696D656F7574207761697419
:1001D000696E6720666F7220636F6E6669726D610B
:1001E00074696F6E004E6F206D6F7265207061676D
:1001F000657300466F756E64206E6F6E656D70740A
:10020000792070616765200044756D70696E6720A4
:1002100066696E69736865640044756D702061631A
:100220006B20666F7220696E76616C696420706104
:10023000676500546869732064756D702061636B35
:10024000206973206E6F74206F7572730044756D32
:1002500070696E672070616765200054696D656F15
:1002600075742077616974696E6720666F722064A7
:10027000756D7020636F6E6669726D6174696F6E03
:10028000002B4D465472616E73706F6E64657232EE
:100290003031392F312E30002B436F6D6D616E641C
:1002A000733A004E6577207465616D206964207330
:1002B00065743A20004E6577206964207365743A4E
:1002C00020002B46002D4572726F720053746F72BE
:1002D000616765206C6F61646564004D79207465A9
:1002E000616D20004F6E2D6E6F65732C20696E76E8
:1002F000616C6964207465616D204944004F682D0C
:100300006E6F65732C20696E76616C6964206F77FF
:100310006E204944004D79204944200052656164B3
:10032000790053657269616C20636F6D6D616E64F5
:100330007320656E61626C656400537461727469E8
:100340006E67002D556E6B6E6F776E20636F6D6DEF
:10035000616E64002D4D697373696E672063616C13
:100360006C6261636B002D4D697373696E67206306
:100370006D64207461626C65002D436F6D6D616EFC
:100380006420746F6F206C6F6E67000000000024A3
:100390000027002A0000000000250028002B000490
:1003A000040404040404040202020202020303031C
:1003B0000303030102040810204080010204081016
:1003C00020010204081020000000080002010000C3
:1003D0000304070000000000000000005EBCE261B2
:1003E0003FDD83C29C7E20A3FD1F41009D23BE46AE
:1003F000DB65F88C11AF32CA57E97400D311140FC2
:1004000011241FBECFEFD8E0DEBFCDBF11E0A0E0CA
:10041000B1E0E4EDF6E202C005900D92AE34B10712
:10042000D9F724E0AEE4B1E001C01D92A939B207CA
:10043000E1F711E0CFEFD1E004C02197FE010E9467
:100440005213CE3FD107C9F70E941C0F0C945D13C5
:100450000C940000FC01918D828D981761F0828DC3
:10046000DF01A80FB11D5D968C91928D9F5F9F73E8
:10047000928F90E008958FEF9FEF0895FC01918D8A
:10048000828D981731F0828DE80FF11D858D90E0F7
:1004900008958FEF9FEF0895FC01918D228D892F94
:1004A00090E0805C9F4F821B91098F73992708957C
:1004B00080E090E0892B29F00E94440B81110C947C
:1004C0000000089590ED980F9A3040F09FEB980F40
:1004D000963018F499EC980F01C090E020E1929FBB
:1004E000C001112420ED260F2A3040F02FEB260FFB
:1004F000263018F429EC260F01C020E0822B089545
:1005000090ED980F9A3038F09FEB980F81E096307D
:1005100018F080E0089581E00895CF93C82F8031CE
:1005200018F480E30E94F10C60E170E08C2FCF9111
:100530000C94EA0C81E892E00C94D50C0F931F9375
:10054000909351018093500190934F0180934E01FD
:100550000E94100EE5E6F4E00181128123813481CE
:100560000583168327833087DC01CB01801B910B29
:10057000A20BB30B81879287A387B4871F910F913A
:100580000895CF938B3AC8F523E0829FC0011124D0
:10059000FC01E457FE4F21912223D9F063E070E083
:1005A0000E943E13C62F0E94100E4AE050E00E94A7
:1005B000E10C0E94F60C83EF91E00E94BA0C6AE015
:1005C00070E08C2F0E94EA0C8AE00E94F10C8C2FC4
:1005D00015C00196811522E09207E9F60E94100EDF
:1005E0004AE050E00E94E10C0E94F60C85EE91E09A
:1005F0000E94BA0C8AE00E94F10C8FEFCF9108950F
:100600001F93CF93DF93EC01162F0E94100E4AE048
:1006100050E00E94E10C0E94F60C88818695869538
:10062000807389F1113019F08DE990E002C080EB00
:1006300090E00E94BA0C888160E170E08695869512
:100640000E94EA0C8CE20E94F10C88816AE070E062
:1006500083700E94EA0C8CE20E94F10C9A818981DD
:100660009F700E94FF0C8CE20E94F10C8A8182959F
:100670008F709B81292F2295207F822B92959F70CE
:100680000E94FF0C26C0113019F08DE790E002C0E7
:100690008BE890E00E94BA0C6AE070E088810E94CA
:1006A000EA0C8CE20E94F10C60E170E089810E940A
:1006B000EA0C8CE20E94F10C60E170E08A810E94F9
:1006C000EA0C8CE20E94F10C60E170E08B810E94E8
:1006D000EA0C8AE0DF91CF911F910C94F10CCF933B
:1006E000DF93C0E0D0E0FE0183E0F695E7958A95C0
:1006F000E1F7E457FE4F808190E09E012770332799
:1007000002C0959587952A95E2F780FF0CC08EE38D
:1007100090E00E94FA0C8D2F0E948D028C2F0E9477
:100720008D020E94B60C2196C11580E1D807D9F63A
:100730008BE290E00E94FA0C85E490E00E94FA0CB3
:10074000DF91CF910C94B60CCF93DF938BE290E0C6
:100750000E94FA0C84E490E00E94FA0CCCE8D1E00C
:1007600089910E948D0283E0CC38D807C9F7DF91C8
:10077000CF910C94B60C8BE290E00E94FA0C84E5C9
:1007800090E00E94FA0C80918C0390E0C0960E9449
:10079000FA0C0C94B60C8BE290E00E94FA0C83E405
:1007A00090E00E94FA0C80918B010E948D02809152
:1007B0008A010E948D020C94B60C8BE290E00E949C
:1007C000FA0C89E490E00E94FA0C80918E030E945A
:1007D0008D0280918D030E948D020C94B60C1F93A4
:1007E000CF93DF9388E992E00E94D50C10E084E07B
:1007F000189FE0011124E0913D04F0913E04EC0FBC
:10080000FD1F8081882319F180E290E00E94FA0C9C
:10081000E0913D04F0913E04EC0FFD1F8081082E15
:10082000000C990B0E94FA0C80E290E00E94FA0CF6
:1008300080913D0490913E04C80FD91F6AE070E09A
:1008400089810E94EA0C0E94B60C1F5FD0CFDF9115
:10085000CF911F910895CF93DF93EC010E94050D76
:100860008C8360E0CE010E94000310925F0161E082
:1008700083E00E94750D60E083E00E94460D81E0F8
:100880008093B00089E08093B10089E68093B30043
:1008900083E28093B4008091B00080628093B000C6
:1008A0008CE991E10197F1F78091B0008F7D809301
:1008B000B0008CEC98E00197F1F788E240E352E059
:1008C00068E976E0815038F19091B00090629093A1
:1008D000B000FA013197F1F79091B0009F7D9093AD
:1008E000B000E82FF0E093E0F595E7959A95E1F7F1
:1008F000EC0FFD1F208130E0982F977002C03595D6
:1009000027959A95E2F720FF02C0FB0101C0FA018A
:100910003197F1F7D7CF8091B00080628093B0001B
:1009200080E392E00197F1F78091B0008F7D809392
:10093000B00060E083E00E94750D84E080935F0169
:10094000DF91CF910895CF93E0915001F091510143
:100950003097C9F0C491C7FF05C0109251011092A1
:10096000500112C0C6FF09C080914E0190914F0105
:10097000909351018093500107C03196F09351013B
:10098000E093500101C0C0E06C2F61708AE00E94CA
:10099000460D6C2F627081E1CF910C94460D1F9330
:1009A000CF93DF93F8943091600120916101321769
:1009B000C9F0E091610125E02E9FF0011124EE596C
:1009C000FE4FDC0101900D922A95E1F72091610123
:1009D0002F5F2093610120916101277020936101B5
:1009E00021E001C020E07894222351F0EC0161E085
:1009F0000E9400031C81CE010E94050D91E0181396
:100A000090E0892FDF91CF911F910895CF92DF92CF
:100A1000EF92FF92CF93DF9380915F01882309F4D7
:100A2000D0C00E94B10DC0905B01D0905C01E090FD
:100A30005D01F0905E019B01AC012C193D094E094E
:100A40005F0969017A0126E0F694E794D794C79488
:100A50002A95D1F760935B0170935C0180935D01EF
:100A600090935E013FEFC316D104E104F10411F04D
:100A700008F0A4C0E9ECF3E08491E5EBF3E0D49155
:100A8000E1EAF3E0C491CC2371F081110E941D0DC5
:100A9000EC2FF0E0EE0FFF1FED58FF4FA591B49142
:100AA000EC91ED23B1F480915F01813009F05AC0DF
:100AB00084EF8C0D813108F055C082E080935F0196
:100AC00085E0E2E5F1E0DF011D928A95E9F788E231
:100AD00046C088EE8C0D813210F481E070C08091A8
:100AE0005F01823009F06AC08DEF8C0D853008F00F
:100AF00065C08091570181112CC084E080935F0113
:100B0000A091600185E08A9FD0011124AE59BE4FAB
:100B1000E2E5F1E001900D928A95E1F780916001A4
:100B20008F5F809360018091600187708093600186
:100B30009091600180916101981343C0809161019F
:100B40008F5F809361018091610187708093610163
:100B500038C083E080935F0180915701815080937A
:100B600057012FC080915F01833021F487EF8C0DF6
:100B70008D3050F080915F01833001F58DEF8C0D49
:100B80008530E0F482E01BC082E080935F01209119
:100B90005701E0915701F0E083E0F595E7958A95DC
:100BA000E1F7EE5AFE4F277081E090E001C0880F18
:100BB0002A95EAF79081892B808303C084E0809393
:100BC0005F01DF91CF91FF90EF90DF90CF9008957C
:100BD000FC01848DDF01A80FB11DA35ABF4F2C91DA
:100BE000848D90E001968F739927848FA689B789A9
:100BF0002C93A089B1898C91837080648C93938DA0
:100C0000848D981306C00288F389E02D80818F7D42
:100C1000808308950F931F93CF93DF93DC015D963C
:100C2000ED91FC915E97309781F0EC01ABA1BCA1F6
:100C300014960D911C91159715969C938E9314976D
:100C40000995EBA1FCA115830483DF91CF911F913E
:100C50000F9108950C94CD121F93CF93DF93FC0155
:100C600021812053243030F5162FEC0120938C0382
:100C70000E94100E4AE050E00E94E10C0E94F60C27
:100C800083EA92E00E94BA0C6AE070E080918C03E3
:100C90000E94EA0C8AE00E94F10C60918C0382E0D1
:100CA00090E00E942A06612FCE01DF91CF911F9123
:100CB0000C94BB0385EC92E0DF91CF911F910C94D3
:100CC000D50CFF920F931F93CF93DF930E94100ECA
:100CD0004AE050E00E94E10C0E94F60C88ED90E0A2
:100CE0000E94BA0C8AE00E94F10C80E092E0ECE8ED
:100CF000F1E0DF019C011D9221503040E1F78F01AE
:100D0000C4E0D0E0D801FD908D01CE010E94C51253
:100D1000F81621F06F2DCE010E94CD122196C4301D
:100D2000B2E0DB0779F76BE583E090E00E942A06EA
:100D30006AE284E092E00E942A0610928B011092EF
:100D40008A01DF91CF911F910F91FF900895FC01CF
:100D50008181813229F40E94610682EC92E002C016
:100D600085EC92E00C94D50C0E94100E4AE050E005
:100D70000E94E10C0E94F60C87EC90E00E94BA0CF5
:100D800080918A0190918B010E94FF0C8AE00C9463
:100D9000F10C9C0187709927892B99F0C901887300
:100DA0009927892B71F0C901807C9170892B49F0BA
:100DB000C90188279E70892B21F081E021153041DF
:100DC00008F080E00895DF92EF92FF920F931F9357
:100DD000CF93DF938C01D62EFC01C1818C2F0E9412
:100DE0008002882339F1F801E2808E2D0E94800272
:100DF000882301F1F801D3818D2F0E94800288237E
:100E0000C9F0F801F4808F2D0E948002882391F0B0
:100E10006E2D8C2F0E946202C82F6F2D8D2F0E9485
:100E20006202D0E0DC2FCC27C82BCE010E94C9067D
:100E300081110BC085EC92E0DF91CF911F910F9152
:100E4000FF90EF90DF900C94D50CD0938E03C0935D
:100E50008D030E94100E4AE050E00E94E10C0E94B7
:100E6000F60C85EB92E00E94BA0C80918D03909174
:100E70008E030E94FF0C8AE00E94F10CC0918D034A
:100E800080E090E00E94C512C81729F06C2F80E026
:100E900090E00E94CD12C0918E0381E090E00E940C
:100EA000C512C81729F06C2F81E090E00E94CD1286
:100EB0006D2DC801DF91CF911F910F91FF90EF90A1
:100EC000DF900C94DD03ECE8F1E06CE873E080E087
:100ED00090E0419120E030E050E0DA01022E02C0C3
:100EE000B595A7950A94E2F7A0FD01962F5F3F4FB5
:100EF0002830310591F76E177F0759F708950E9442
:100F0000100E4AE050E00E94E10C0E94F60C88E6C8
:100F100090E00E94BA0C8AE00E94F10C60E08AE046
:100F20000E94460D60E081E10E94460D1092510141
:100F30001092500108950F931F93CF93DF93FC01FC
:100F4000A3A1B4A11097E9F1EC01158A168A178ABA
:100F5000108E038CF48DE02D309779F1888181FD1E
:100F60002CC014960D911C9115971596DC93CE9379
:100F700014978881826088830995988180FB90F915
:100F8000988388818D7F8883EBA1FCA115830483DE
:100F90000E94100E09811A812B813C810D831E83D2
:100FA0002F833887DC01CB01801B910BA20BB30B85
:100FB00089879A87AB87BC8704C0888181608883D2
:100FC000E7CFDF91CF911F910F910895CF93DF93DA
:100FD000F894809160018093610184E080935F01C7
:100FE00078940E947F071092590110925801C0E432
:100FF000D4E080E39AE09A8F898F8CE390E0A0E0C0
:10100000B0E089839A83AB83BC8389819A81AB8169
:10101000BC818D839E83AF83B8870E94100E698741
:101020007A878B879C87CE010E949B0789899A8942
:10103000AB89BC898D879E87AF87B88BDF91CF91B5
:101040000895CF93DF9300D000D01F92CDB7DEB7C5
:101050006091550470915604809157049091580402
:101060006E3171058105910558F00E94100E4AE01D
:1010700050E00E94E10C0E94F60C8BE592E0AAC0C1
:101080002AE030E040E050E00E940D13613071052D
:101090008105910509F049C00E94100E4AE050E018
:1010A0000E94E10C0E94F60C8DE492E00E94BA0CC2
:1010B0006AE070E080915A010E94EA0C8AE00E9486
:1010C000F10C50915A0123E0529FC00111249C0160
:1010D0002E5F3F4F211542E0340728F4F901E45711
:1010E000FE4F408101C040E09C012F5F3F4F211522
:1010F00062E0360728F4F901E457FE4F208105C06D
:10110000811522E0920734F420E0FC01E457FE4F01
:10111000808102C020E080E059838A832B834C8346
:10112000CE0101960E942B0461C0CE0101960E945F
:10113000CF04882309F45AC089818C7F843D09F04B
:1011400055C02A819B81392F3F7040918D0350916A
:101150008E032417350759F00E94100E4AE050E024
:101160000E94E10C0E94F60C83E392E01CC0809187
:101170005A0192959F704C81542F5295507F252F84
:10118000292B342F32953F70482F50E02417350714
:1011900081F00E94100E4AE050E00E94E10C0E9493
:1011A000F60C89E192E00E94BA0C8AE00E94F10CF0
:1011B0001DC08F5F0E94C10280935A018F3F91F43E
:1011C0000E94100E4AE050E00E94E10C0E94F60CD2
:1011D00088E092E00E94BA0C8AE00E94F10C0E9422
:1011E000E60704C080E494E00E949B070F900F90F4
:1011F0000F900F900F90DF91CF910895AF92BF9213
:10120000CF92DF92EF92FF920F931F93CF93DF93D2
:1012100000D000D01F92CDB7DEB7809155049091D9
:101220005604A0915704B0915804C397A105B10585
:1012300090F00E94100E4AE050E00E94E10C0E94E3
:10124000F60C84EC91E00E94BA0C8AE00E94F10C4A
:101250000E94E607F5C0CE0101960E94CF048823C4
:1012600009F4EEC089818C7F8C3C09F0E9C02B81A8
:10127000422F42954F703C81532F5295507F852FBE
:10128000842B932F92959F7040918D0350918E03E4
:101290008417950759F00E94100E4AE050E00E9412
:1012A000E10C0E94F60C8BEA91E012C00A81122F29
:1012B0001F70C8010E94C90681110DC00E94100E46
:1012C0004AE050E00E94E10C0E94F60C8AE991E0AD
:1012D0000E94BA0C18C080915801909159010817CA
:1012E0001907A9F00E94100E4AE050E00E94E10C9C
:1012F0000E94F60C84E891E00E94BA0C9B818A81DE
:101300009F700E94FF0C8AE00E94F10C99C0680156
:1013100083E0D694C7948A95E1F7580187E0A82224
:10132000BB24F601E457FE4F7F01808190E00A2C38
:1013300002C0959587950A94E2F780FF17C00E9436
:10134000100E4AE050E00E94E10C0E94F60C89E683
:1013500091E00E94BA0CC8010E94FF0C8AE00E9432
:10136000F10C85E691E00E949E023EC00E94100EA4
:101370004AE050E00E94E10C0E94F60C80E591E00A
:101380000E94BA0CC8010E94FF0C8AE00E94F10C76
:101390008CE491E00E949E020E94100E4AE050E010
:1013A0000E94E10C0E94F60C8AE391E00E94BA0CC4
:1013B000C8010E94FF0C8AE00E94F10C61E070E01D
:1013C00001C0660FAA94EAF7F7018081682B608359
:1013D000C60104960E942A060E94630790938B011F
:1013E00080938A010E94B40688EB9BE0A0E0B0E005
:1013F0008093410490934204A0934304B093440427
:101400008091410490914204A0914304B09144041E
:101410008093450490934604A0934704B0934804F6
:101420000E94100E6093490470934A0480934B0409
:1014300090934C0486EE97E090935A04809359045D
:101440000F900F900F900F900F90DF91CF911F9101
:101450000F91FF90EF90DF90CF90BF90AF900895E5
:101460001F93CF93DF93CDB7DEB72A970FB6F894CB
:10147000DEBF0FBECDBFCE0106960E94CF048823EB
:1014800009F4B8C08E818C7F843C09F03FC08F8105
:101490002885922F9F7040918D0350918E03841761
:1014A000950759F40E94100E4AE050E00E94E10CAA
:1014B0000E94F60C89E191E044C020918C032370D6
:1014C000286C29834A83282F2295207F352F3F704F
:1014D000232B2B839295907F82958F70892B8C8301
:1014E000CE0101960E942B049F8188858F70909376
:1014F00058018093590180E494E00E949B078EEF8D
:1015000098E090935A048093590474C0803D09F088
:1015100071C08F812885922F9F7020918D0330910B
:101520008E038217930799F08F3F9F4081F00E94AE
:10153000100E4AE050E00E94E10C0E94F60C83E09D
:1015400091E00E94BA0C8AE00E94F10C53C0ECE8D2
:10155000F1E04CE853E090E010E080E0619161112F
:1015600091E08F5F833019F4190F80E090E04E17FF
:101570005F07A1F78111190F80918C038370886D2B
:1015800089832A83812F8295807F932F9F70892B57
:101590008B83812F82958F708C83CE0101960E9460
:1015A0002B0480E00E94C10280935A01112389F02C
:1015B0008F3F79F08BEF90E00E949E0281E298E0ED
:1015C00090935A048093590480E494E00E949B070E
:1015D00011C00E94100E4AE050E00E94E10C0E94EF
:1015E000F60C8BEE90E00E94BA0C8AE00E94F10C9F
:1015F0000E94E6072A960FB6F894DEBF0FBECDBF55
:10160000DF91CF911F9108950895CF92DF92EF92CD
:10161000FF920F931F93CF93DF936C017A018B019D
:10162000C0E0D0E0CE15DF0581F0D8016D918D01CD
:10163000D601ED91FC910190F081E02DC601099554
:10164000892B11F02196EECF7E01C701DF91CF915A
:101650001F910F91FF90EF90DF90CF900895089524
:1016600080E090E00895FC01538D448D252F30E0FB
:10167000842F90E0821B930B541710F0CF9608959F
:10168000019708950E9458138FE893E00E944C023E
:1016900021E0892B09F420E0822F0895EF92FF9238
:1016A0000F931F93CF93DF93EC0181E0888F9B8D85
:1016B0008C8D981305C0E889F989808185FD26C045
:1016C000F62E0B8D10E00F5F1F4F0F731127E02ECA
:1016D0008C8DE8120CC00FB607FCFACFE889F989A7
:1016E000808185FFF5CFCE010E94E805F1CF8B8D7B
:1016F000FE01E80FF11DE35AFF4FF0829FB7F89407
:101700000B8FEA89FB89808180620AC09FB7F894B9
:10171000EE89FF896083E889F9898081837080641C
:1017200080839FBF81E090E0DF91CF911F910F9167
:10173000FF90EF900895CF93DF93EC01888D88237D
:10174000C9F0EA89FB89808185FD05C0A889B9892E
:101750008C9186FD0FC00FB607FCF5CF808185FF09
:10176000F2CFA889B9898C9185FFEDCFCE010E9477
:10177000E805E7CFDF91CF9108951F920F920FB642
:101780000F9211242F933F934F935F936F937F9307
:101790008F939F93AF93BF93EF93FF93E0910201D9
:1017A000F09103010995FF91EF91BF91AF919F9146
:1017B0008F917F916F915F914F913F912F910F90FA
:1017C0000FBE0F901F9018951F920F920FB60F9299
:1017D00011242F933F934F935F936F937F938F9336
:1017E0009F93AF93BF93EF93FF93E0910001F0912C
:1017F00001010995FF91EF91BF91AF919F918F9159
:101800007F916F915F914F913F912F910F900FBEFC
:101810000F901F9018951F920F920FB60F921124E0
:101820002F933F934F935F936F937F938F939F93E8
:10183000AF93BF93EF93FF938FE893E00E94E80587
:10184000FF91EF91BF91AF919F918F917F916F9198
:101850005F914F913F912F910F900FBE0F901F906E
:1018600018951F920F920FB60F9211242F938F93FA
:101870009F93EF93FF93E0919F03F091A0038081EA
:10188000E091A503F091A60382FD12C090818091A2
:10189000A8038F5F8F732091A903821751F0E09105
:1018A000A803F0E0E157FC4F958F8093A80301C097
:1018B0008081FF91EF919F918F912F910F900FBE9B
:1018C0000F901F901895009769F0FC01019000207F
:1018D000E9F73197AF01481B590BBC018FE893E042
:1018E0000C94050B80E090E008958F929F92AF9248
:1018F000BF920F931F93CF93DF93CDB7DEB7A1971E
:101900000FB6F894DEBF0FBECDBF19A2423008F467
:101910004AE08E010F5D1F4F842E912CA12CB12C1B
:10192000A50194010E940D13E62FB901CA010150CF
:101930001109EA3014F4E05D01C0E95CD801EC93D0
:10194000232B242B252B61F7C8010E94630CA19641
:101950000FB6F894DEBF0FBECDBFDF91CF911F91C0
:101960000F91BF90AF909F908F90089586E491E083
:101970000C94630C0F931F93CF93DF938C01C0E003
:10198000D0E0F801EC0FFD1F6491662341F08FE871
:1019900093E00E944E0B892B11F02196F2CFCE01DD
:1019A000DF91CF911F910F910895CF93DF930E9404
:1019B000BA0CEC010E94B60C8C0F9D1FDF91CF91E9
:1019C00008954115510521F48FE893E00C944E0BD6
:1019D0000C94750CAB01682F70E080E090E00C94E3
:1019E000E10C682F8FE893E00C944E0B89E491E0B2
:1019F0000C94630C682F8FE893E00C944E0BBC01A1
:101A000080E090E04AE00C94750CDC0135E080E069
:101A1000315091F09D919827E92FEF70F0E0E55259
:101A2000FC4F2491E92FE295EF70F0E0E551FC4F77
:101A3000E491822F8E27ECCF0895833081F028F433
:101A4000813099F08230A1F008958730A9F0883074
:101A5000B9F08430D1F4809180008F7D03C08091F3
:101A600080008F7780938000089584B58F7702C0BF
:101A700084B58F7D84BD08958091B0008F7703C0B9
:101A80008091B0008F7D8093B00008951F93CF9315
:101A9000DF93282F30E0F901E953FC4F8491F901DD
:101AA000ED54FC4FD491F901E156FC4FC491CC2385
:101AB000C1F0162F81110E941D0DEC2FF0E0EE0FEA
:101AC000FF1FEB56FC4FA591B4919FB7F8941111ED
:101AD00004C08C91D095D82302C0EC91DE2BDC930E
:101AE0009FBFDF91CF911F910895CF93DF9390E037
:101AF000FC01ED54FC4F2491FC01E156FC4F849114
:101B0000882361F190E0880F991FFC01E557FC4F95
:101B1000C591D491FC01EB56FC4FA591B491611194
:101B200009C09FB7F8948881209582238883EC911F
:101B30002E230BC0623061F49FB7F8948881322F56
:101B4000309583238883EC912E2B2C939FBF06C066
:101B50008FB7F894E8812E2B28838FBFDF91CF9128
:101B600008953FB7F8948091950490919604A091C0
:101B70009704B091980426B5A89B05C02F3F19F093
:101B80000196A11DB11D3FBFBA2FA92F982F8827FD
:101B9000820F911DA11DB11DBC01CD0143E0660F57
:101BA000771F881F991F4A95D1F708958F929F92AA
:101BB000AF92BF92CF92DF92EF92FF926B017C01C6
:101BC0000E94B10D4B015C01C114D104E104F10488
:101BD000F1F00E94B10DDC01CB0188199909AA0925
:101BE000BB09883E9340A105B10570F321E0C21AFC
:101BF000D108E108F10888EE880E83E0981EA11C48
:101C0000B11CC114D104E104F10419F7DDCFFF9038
:101C1000EF90DF90CF90BF90AF909F908F900895FE
:101C20002FB7F8946091910470919204809193047D
:101C3000909194042FBF0895CF93DF93EC01888196
:101C40008E7F888388818D7F888319861A861B867C
:101C50001C861D821E821F82188619821A821B8290
:101C60001C8218A21F8E1AA219A21CA21BA21D8AD6
:101C70001E8A1F8A188E3A8F298F1C8E1B8E1E8EED
:101C80001D8E49835A836B837C8389819A81AB81C2
:101C9000BC818D839E83AF83B8870E94100E6987B5
:101CA0007A878B879C878FEF9FEFDC018D879E87DC
:101CB000AF87B88B898B9A8BAB8BBC8B8BA19CA18C
:101CC0008A589440F9F08AE894E09CA38BA3809111
:101CD0008A0490918B04892B39F4D0938B04C093A0
:101CE0008A0418A21F8E08C0E0918C04F0918D0424
:101CF000F8A3EF8FD2A3C1A31AA219A2D0938D0487
:101D0000C0938C04CE01DF91CF910C949B071F925E
:101D10000F920FB60F9211242F933F938F939F939F
:101D2000AF93BF938091910490919204A0919304FA
:101D3000B09194043091900426E0230F2D3720F4C5
:101D40000296A11DB11D05C029E8230F0396A11D10
:101D5000B11D209390048093910490939204A093DA
:101D60009304B09394048091950490919604A0916B
:101D70009704B09198040196A11DB11D809395041C
:101D800090939604A0939704B0939804BF91AF9159
:101D90009F918F913F912F910F900FBE0F901F90A9
:101DA0001895CF93DF93EC01988188818E7F88838B
:101DB00088818D7F888390FF03C0CE010E940A0630
:101DC0008BA19CA1009769F11CA21BA2EF8DF8A129
:101DD000A9A1BAA1309799F4109749F4DC011196A2
:101DE0001C921E9213961C921E9212971AC09096E5
:101DF0001C921E925F97FC01B183A08312C01097C2
:101E000041F412A211A2DC011396FC93EE931297F7
:101E100008C0B2A3A1A3A9A1BAA19096FC93EE9386
:101E20005F97DF91CF91089580E494E00E94D10EF6
:101E300085E694E00C94D10E789484B5826084BDDC
:101E400084B5816084BD85B5826085BD85B58160BE
:101E500085BD80916E00816080936E00109281003C
:101E600080918100826080938100809181008160F7
:101E700080938100809180008160809380008091B8
:101E8000B10084608093B1008091B0008160809344
:101E9000B00080917A00846080937A0080917A000B
:101EA000826080937A0080917A008E7F80937A009E
:101EB00080917A00806880937A001092C1008091AE
:101EC0007A008F7780937A00E0919F03F091A003CE
:101ED00082E08083E0919B03F0919C031082E0916B
:101EE0009D03F0919E0383E380831092A703E0910A
:101EF000A303F091A40386E08083E091A103F09115
:101F0000A203808180618083E091A103F091A2030C
:101F1000808188608083E091A103F091A203808199
:101F200080688083E091A103F091A20380818F7D7E
:101F300080830E94100E4AE050E00E94E10C0E9453
:101F4000F60C8AE393E00E94BA0C8AE00E94F10C3E
:101F500061E08AE00E94750D61E081E10E94750DEB
:101F60000E947F0760E082E00E94750D61E084E0DE
:101F70000E94750D61E084E00E94460D88E2E2E671
:101F8000F1E0DF011D928A95E9F71092610110924C
:101F9000600184E080935F010E94B10D60935B015A
:101FA00070935C0180935D0190935E0186E095E003
:101FB0009093010180930001809169008C7F816082
:101FC00080936900E89A80E090E00E94C5128093B7
:101FD0008D0381E090E00E94C51280938E030E94E1
:101FE000100E4AE050E00E94E10C0E94F60C85E1E0
:101FF00093E00E94BA0C80918D0390918E030E9411
:10200000FF0C8AE00E94F10C80918D0390918E0369
:102010000E94C90681110FC00E94100E4AE050E0D4
:102020000E94E10C0E94F60C8DEF92E00E94BA0C27
:102030008AE00E94F10C82E090E00E94C512809339
:102040008C038430B0F00E94100E4AE050E00E94F1
:10205000E10C0E94F60C84EE92E00E94BA0C8AE039
:102060000E94F10C10928C0360E082E090E00E94EC
:102070002A060E94100E4AE050E00E94E10C0E94E5
:10208000F60C8BED92E00E94BA0C6AE070E0809151
:102090008C030E94EA0C8AE00E94F10C83E090E03D
:1020A0000E94C512C82F84E092E00E94C512CB3571
:1020B00009F58A32F9F40E94100E4AE050E00E94BD
:1020C000E10C0E94F60C8CEC92E00E94BA0C8AE0C3
:1020D0000E94F10C0CE811E0C4E0D0E0CE010E94B7
:1020E000C512F80181938F012196C430F2E0DF0719
:1020F000A9F702C00E9461060E94630790938B01BA
:1021000080938A010E94B40660918D0370918E03C2
:1021100080E090E0611571058105910511F00E9444
:10212000BC120E94100E4AE050E00E94E10C0E9496
:10213000F60C82E293E00E94BA0C8AE00E94F10C55
:1021400084E091E090933E0480933D0461E08AE056
:102150000E94460D61E081E10E94460D66E970E053
:1021600080E090E00E94D60D60E08AE00E94460D7B
:1021700060E081E10E94460D64E670E080E090E05E
:102180000E94D60D61E08AE00E94460D61E081E187
:102190000E94460D66E970E080E090E00E94D60D56
:1021A00060E08AE00E94460D60E081E10E94460DF9
:1021B0000E94100E4AE050E00E94E10C0E94F60CD2
:1021C0008CE193E00E94BA0C8AE00E94F10CC1E01D
:1021D0008FE893E00E942A028A30910509F047C0F7
:1021E00080913F04882349F010923F0410923C04F0
:1021F00089E793E00E94D50C4FC060913C046623B0
:1022000009F44AC0E62FF0E0E45DFB4F1082209114
:102210003D0430913E042115310519F486E693E022
:1022200021C040912C0480E0F90194E0899FE00DE9
:10223000F11D11249081992399F094130FC091817D
:1022400069130CC00280F381E02D309721F08CE2FD
:1022500094E0099509C084E593E004C08F5FE4CF62
:1022600083E493E00E94D50C10923C0415C097FDC6
:1022700013C08D30910581F0E0913C0491E09E0FF8
:1022800090933C04F0E0E45DFB4F8083903120F0BC
:1022900010923C04C0933F0480918A0490918B0477
:1022A00090938F0480938E04E0918E04F0918F04BC
:1022B000309709F475C001A112A1808180FF6BC025
:1022C00085859685A785B089892B8A2B8B2B69F408
:1022D000908180818E7F808380818D7F808390FF3D
:1022E0005AC0CF010E940A0656C00E94100EE0910B
:1022F0008E04F0918F0441805280638074808184C9
:102300009284A384B484C580D680E780F084DC0105
:10231000CB0188199909AA09BB098C159D05AE0541
:10232000BF05C8F185859685A785B0891816190659
:102330001A061B065CF485859685A785B0890197EA
:10234000A109B10985879687A787B08B858996896A
:10235000A789B08D0196A11DB11D858B968BA78B8A
:10236000B08FC580D680E780F08481859285A38573
:10237000B4858C0D9D1DAE1DBF1D81879287A387DF
:10238000B4874582568267827086018CF28DE02D7B
:10239000309709F0099510938F0400938E0484CF31
:1023A0000E94580215CFEFE8F3E01382128288EE04
:1023B00093E0A0E0B0E084839583A683B78388E3AD
:1023C00091E09183808385EC90E09587848784EC0D
:1023D00090E09787868780EC90E0918B808B81ECF2
:1023E00090E0938B828B82EC90E0958B848B86ECD3
:1023F00090E0978B868B118E128E138E148EEAE8E6
:10240000F4E011821082138212821582148223EA70
:1024100034E044E650E060E070E085E694E00E943D
:102420001C0E20E33AE04CE350E060E070E080E412
:1024300094E00E941C0EECE2F4E0108A1082128AF2
:10244000118A138A08958F929F92AF92BF92CF9272
:10245000DF92EF92FF92CF93DF93EC016881798155
:102460008A819B81611571058105910521F464E2E2
:1024700079ED8BE597E02DE133EF41E050E00E94EC
:10248000DB1249015A019B01AC01A7EAB1E40E94A9
:10249000FA126B017C01ACEEB4EFA50194010E942D
:1024A0000813DC01CB018C0D9D1DAE1DBF1DB7FFB8
:1024B00003C00197A109B04888839983AA83BB838D
:1024C000BC01CD019F77DF91CF91FF90EF90DF901E
:1024D000CF90BF90AF909F908F9008958F929F92D2
:1024E000AF92BF92CF92DF92EF92FF926091300154
:1024F0007091310180913201909133016115710524
:102500008105910521F464E279ED8BE597E02DE1F9
:1025100033EF41E050E00E94DB1249015A019B0178
:10252000AC01A7EAB1E40E94FA126B017C01ACEEA7
:10253000B4EFA50194010E940813DC01CB018C0DBE
:102540009D1DAE1DBF1DB7FF03C00197A109B04877
:102550008093300190933101A0933201B093330105
:10256000BC01CD019F77FF90EF90DF90CF90BF909F
:10257000AF909F908F9008956093300170933101D8
:1025800080933201909333010895F999FECF92BD63
:1025900081BDF89A992780B50895262FF999FECF25
:1025A0001FBA92BD81BD20BD0FB6F894FA9AF99A70
:1025B0000FBE01960895052E97FB1EF400940E940D
:1025C000F21257FD07D00E940D1307FC03D04EF402
:1025D0000C94F21250954095309521953F4F4F4FF6
:1025E0005F4F089590958095709561957F4F8F4FBF
:1025F0009F4F08950E942F13A59F900DB49F900D9B
:10260000A49F800D911D11240895B7FF0C94FA1218
:102610000E94FA12821B930B0895A1E21A2EAA1BA4
:10262000BB1BFD010DC0AA1FBB1FEE1FFF1FA21782
:10263000B307E407F50720F0A21BB30BE40BF50B7F
:10264000661F771F881F991F1A9469F76095709508
:10265000809590959B01AC01BD01CF010895A29F8B
:10266000B001B39FC001A39F700D811D1124911D66
:10267000B29F700D811D1124911D0895AA1BBB1BD3
:1026800051E107C0AA1FBB1FA617B70710F0A61B72
:10269000B70B881F991F5A95A9F780959095BC0193
:1026A000CD010895EE0FFF1F0590F491E02D0994E0
:1026B00081E090E0F8940C945D1312E0CFEFD1E04C
:1026C00004C0FE010E9452132196C030D107C9F701
:0426D000F894FFCFAC
:1026D400040B040B4901DD034905E3065401BB0364
:1026E40054022C064301CB034401A40345016F03A8
:1026F4004602A7063F019A024801EF0300000000CA
:1027040001000000000000004E0B050B330B9B0B77
:0E2714004C022A023E020D0A00207C2000002A
:107800000C94343C0C94513C0C94513C0C94513CE1
:107810000C94513C0C94513C0C94513C0C94513CB4
:107820000C94513C0C94513C0C94513C0C94513CA4
:107830000C94513C0C94513C0C94513C0C94513C94
:107840000C94513C0C94513C0C94513C0C94513C84
:107850000C94513C0C94513C0C94513C0C94513C74
:107860000C94513C0C94513C11241FBECFEFD8E036
:10787000DEBFCDBF11E0A0E0B1E0EAE8FFE702C063
:1078800005900D92A230B107D9F712E0A2E0B1E065
:1078900001C01D92AD30B107E1F70E942D3D0C945F
:1078A000C33F0C94003C982F95959595959595958B
:1078B000905D8F708A307CF0282F295A8091C0000B
:1078C00085FFFCCF9093C6008091C00085FFFCCF60
:1078D0002093C6000895282F205DF0CF982F809127
:1078E000C00085FFFCCF9093C6000895EF92FF92F1
:1078F0000F931F93EE24FF2487018091C00087FD22
:1079000017C00894E11CF11C011D111D81E2E8164D
:1079100081EAF80687E0080780E0180770F3E09135
:107920000401F091050109958091C00087FFE9CF1E
:107930008091C6001F910F91FF90EF9008950E94D3
:10794000763C982F8091C00085FFFCCF9093C600B5
:1079500091362CF490330CF09053892F089597555D
:10796000892F08951F930E949F3C182F0E949F3CCF
:107970001295107F810F1F9108951F93182F882350
:1079800021F00E94763C1150E1F71F9108951F935A
:10799000182F0E94763C803249F0809103018F5F5E
:1079A000809303018530C1F01F9108958091C0003C
:1079B00085FFFCCF84E18093C6008091C00085FFE5
:1079C000FCCF1093C6008091C00085FFFCCF80E102
:1079D0008093C6001F910895E0910401F091050184
:1079E00009951F9108950E94763C803241F0809164
:1079F00003018F5F80930301853081F008958091AA
:107A0000C00085FFFCCF84E18093C6008091C00058
:107A100085FFFCCF80E18093C6000895E0910401CA
:107A2000F09105010995089548EC50E08823A1F0F4
:107A30002D9A28EE33E0FA013197F1F721503040CA
:107A4000D1F72D9828EE33E0FA013197F1F7215064
:107A50003040D1F7815061F708953F924F925F9285
:107A60006F927F928F929F92AF92BF92CF92DF924E
:107A7000EF92FF920F931F93CF93DF93000082E06A
:107A80008093C00080E18093C4001092C50088E11B
:107A90008093C10086E08093C2005098589A259A3E
:107AA00081E00E94143D24E1F22E9EE1E92E85E959
:107AB000D82E0FE0C02E10E1B12EAA24A394B1E479
:107AC0009B2EA6E58A2EF2E57F2EE0E26E2E79E46B
:107AD000572E63E5462E50E5352E0E94763C8033C6
:107AE000B1F18133B9F1803409F46FC0813409F404
:107AF00076C0823409F485C0853409F488C08035A5
:107B000031F1823521F1813511F1853509F485C0D6
:107B1000863509F48DC0843609F496C0843709F49B
:107B200003C1853709F472C1863709F466C08091B4
:107B300003018F5F80930301853079F6E0910401A2
:107B4000F091050109950E94763C803351F60E9420
:107B5000F33CC3CF0E94763C803249F78091C0004D
:107B600085FFFCCFF092C6008091C00085FFFCCF5E
:107B70009092C6008091C00085FFFCCF8092C60025
:107B80008091C00085FFFCCF7092C6008091C0003C
:107B900085FFFCCF6092C6008091C00085FFFCCFBE
:107BA0005092C6008091C00085FFFCCF4092C60075
:107BB0008091C00085FFFCCF3092C6008091C0004C
:107BC00085FFFCCFB092C60088CF0E94763C8638F5
:107BD00008F4BDCF0E94763C0E94F33C7ECF0E9409
:107BE000763C803809F49CC0813809F40BC1823896
:107BF00009F430C1883909F48FC080E00E94C73C85
:107C00006CCF84E10E94BD3C0E94F33C66CF85E0CE
:107C10000E94BD3C0E94F33C60CF0E94763C809362
:107C200006010E94763C809307010E94F33C55CFE9
:107C30000E94763C803309F411C183E00E94BD3C70
:107C400080E00E94C73C49CF0E94763C80930902A5
:107C50000E94763C8093080280910C028E7F809374
:107C60000C020E94763C853409F409C18091080217
:107C700090910902892B89F000E010E00E94763C87
:107C8000F801E85FFE4F80830F5F1F4F809108026D
:107C9000909109020817190788F30E94763C8032F8
:107CA00009F045CF80910C0280FFF5C0609106017C
:107CB00070910701660F771F7093070160930601AB
:107CC000A0910802B09109021097C9F0E8E0F1E034
:107CD0009B01AD014E0F5F1FF999FECF32BD21BD53
:107CE000819180BDFA9AF99A2F5F3F4FE417F5070B
:107CF00099F76A0F7B1F70930701609306018091CB
:107D0000C00085FFFCCFF092C6008091C00085FFC7
:107D1000FCCFB092C600E1CE83E00E94C73CDDCE2E
:107D200082E00E94C73CD9CE0E94763C8093090233
:107D30000E94763C80930802809106019091070191
:107D4000880F991F90930701809306010E94763C4B
:107D5000853409F49AC080910C028E7F80930C02C6
:107D60000E94763C803209F0B8CE8091C00085FF39
:107D7000FCCFF092C600A0910802B09109021097C2
:107D8000C1F180910C02082F0170182F1695117007
:107D9000E0910601F0910701AF014F5F5F4FBA011B
:107DA00020E030E00023B1F4112339F49491809164
:107DB000C00085FFFCCF9093C6002F5F3F4FCB01E3
:107DC0000196FA012A173B0780F4BC014F5F5F4F11
:107DD000002351F3F999FECFF2BDE1BDF89A90B5B9
:107DE0008091C00085FFFCCFE6CF709307016093C0
:107DF00006018091C00085FDE5CE8091C00085FF21
:107E0000F8CFE0CE81E00E94C73C67CE0E94763C6E
:107E1000803209F08CCE8091C00085FFFCCFF092BB
:107E2000C6008091C00085FFFCCFE092C600809123
:107E3000C00085FFFCCFD092C6008091C00085FFB6
:107E4000FCCFC092C6008091C00085FFFCCFB092ED
:107E5000C60043CE80E10E94C73C3FCE0E94763CE4
:107E60000E94763C182F0E94763C112309F483C0AF
:107E7000113009F484C08FE00E94C73C2ECE80915F
:107E80000C02816080930C02F1CE80910C02816023
:107E900080930C0265CF809107018823880F880B9F
:107EA0008A2180930B028091060190910701880F2F
:107EB000991F90930701809306018091080280FF2B
:107EC00009C08091080290910902019690930902DD
:107ED00080930802F894F999FECF1127E0910601EA
:107EE000F0910701C8E0D1E0809108029091090269
:107EF000103091F40091570001700130D9F303E084
:107F000000935700E8950091570001700130D9F3B4
:107F100001E100935700E8950990199000915700EE
:107F200001700130D9F301E000935700E8951395F3
:107F3000103498F011270091570001700130D9F3E7
:107F400005E000935700E89500915700017001305B
:107F5000D9F301E100935700E8953296029709F0B2
:107F6000C7CF103011F00296E5CF11248091C000E8
:107F700085FFC5CEC8CE8EE10E94C73CAECD85E957
:0A7F80000E94C73CAACDF894FFCF81
:027F8A00800075
:040000030000780081
:00000001FF
